{
  "_format": "hh-sol-artifact-1",
  "contractName": "YieldXInvestmentModule",
  "sourceName": "contracts/YieldXInvestmentModule.sol",
  "abi": [
    {
      "inputs": [
        {
          "internalType": "address",
          "name": "_usdcToken",
          "type": "address"
        }
      ],
      "stateMutability": "nonpayable",
      "type": "constructor"
    },
    {
      "anonymous": false,
      "inputs": [
        {
          "indexed": true,
          "internalType": "uint256",
          "name": "invoiceId",
          "type": "uint256"
        },
        {
          "indexed": true,
          "internalType": "address",
          "name": "investor",
          "type": "address"
        },
        {
          "indexed": false,
          "internalType": "uint256",
          "name": "amount",
          "type": "uint256"
        },
        {
          "indexed": false,
          "internalType": "uint256",
          "name": "totalFunding",
          "type": "uint256"
        }
      ],
      "name": "InvestmentMade",
      "type": "event"
    },
    {
      "anonymous": false,
      "inputs": [
        {
          "indexed": true,
          "internalType": "uint256",
          "name": "invoiceId",
          "type": "uint256"
        },
        {
          "indexed": true,
          "internalType": "address",
          "name": "investor",
          "type": "address"
        },
        {
          "indexed": false,
          "internalType": "uint256",
          "name": "amount",
          "type": "uint256"
        }
      ],
      "name": "InvestmentRefunded",
      "type": "event"
    },
    {
      "anonymous": false,
      "inputs": [
        {
          "indexed": true,
          "internalType": "uint256",
          "name": "invoiceId",
          "type": "uint256"
        },
        {
          "indexed": false,
          "internalType": "uint256",
          "name": "totalAmount",
          "type": "uint256"
        },
        {
          "indexed": false,
          "internalType": "uint256",
          "name": "profit",
          "type": "uint256"
        }
      ],
      "name": "ReturnsDistributed",
      "type": "event"
    },
    {
      "inputs": [
        {
          "internalType": "uint256",
          "name": "invoiceId",
          "type": "uint256"
        },
        {
          "internalType": "address",
          "name": "investor",
          "type": "address"
        },
        {
          "internalType": "uint256",
          "name": "aprBasisPoints",
          "type": "uint256"
        },
        {
          "internalType": "uint256",
          "name": "timeElapsed",
          "type": "uint256"
        }
      ],
      "name": "calculateExpectedReturn",
      "outputs": [
        {
          "internalType": "uint256",
          "name": "expectedReturn",
          "type": "uint256"
        }
      ],
      "stateMutability": "view",
      "type": "function"
    },
    {
      "inputs": [],
      "name": "coreContract",
      "outputs": [
        {
          "internalType": "address",
          "name": "",
          "type": "address"
        }
      ],
      "stateMutability": "view",
      "type": "function"
    },
    {
      "inputs": [
        {
          "internalType": "uint256",
          "name": "amount",
          "type": "uint256"
        }
      ],
      "name": "emergencyWithdraw",
      "outputs": [],
      "stateMutability": "nonpayable",
      "type": "function"
    },
    {
      "inputs": [],
      "name": "getContractBalance",
      "outputs": [
        {
          "internalType": "uint256",
          "name": "",
          "type": "uint256"
        }
      ],
      "stateMutability": "view",
      "type": "function"
    },
    {
      "inputs": [
        {
          "internalType": "uint256",
          "name": "invoiceId",
          "type": "uint256"
        }
      ],
      "name": "getInvestmentInfo",
      "outputs": [
        {
          "internalType": "uint256",
          "name": "totalInvestment",
          "type": "uint256"
        },
        {
          "internalType": "uint256",
          "name": "numInvestors",
          "type": "uint256"
        },
        {
          "internalType": "address[]",
          "name": "investors",
          "type": "address[]"
        }
      ],
      "stateMutability": "view",
      "type": "function"
    },
    {
      "inputs": [
        {
          "internalType": "address",
          "name": "investor",
          "type": "address"
        },
        {
          "internalType": "uint256",
          "name": "invoiceId",
          "type": "uint256"
        }
      ],
      "name": "getInvestorData",
      "outputs": [
        {
          "internalType": "uint256",
          "name": "investmentAmount",
          "type": "uint256"
        }
      ],
      "stateMutability": "view",
      "type": "function"
    },
    {
      "inputs": [
        {
          "internalType": "address",
          "name": "investor",
          "type": "address"
        }
      ],
      "name": "getInvestorInvoices",
      "outputs": [
        {
          "internalType": "uint256[]",
          "name": "",
          "type": "uint256[]"
        }
      ],
      "stateMutability": "view",
      "type": "function"
    },
    {
      "inputs": [],
      "name": "getTotalInvestmentStats",
      "outputs": [
        {
          "internalType": "uint256",
          "name": "totalInvestmentVolume",
          "type": "uint256"
        },
        {
          "internalType": "uint256",
          "name": "totalActiveInvestors",
          "type": "uint256"
        }
      ],
      "stateMutability": "view",
      "type": "function"
    },
    {
      "inputs": [
        {
          "internalType": "uint256",
          "name": "",
          "type": "uint256"
        },
        {
          "internalType": "address",
          "name": "",
          "type": "address"
        }
      ],
      "name": "investments",
      "outputs": [
        {
          "internalType": "uint256",
          "name": "",
          "type": "uint256"
        }
      ],
      "stateMutability": "view",
      "type": "function"
    },
    {
      "inputs": [
        {
          "internalType": "address",
          "name": "",
          "type": "address"
        },
        {
          "internalType": "uint256",
          "name": "",
          "type": "uint256"
        }
      ],
      "name": "investorInvoices",
      "outputs": [
        {
          "internalType": "uint256",
          "name": "",
          "type": "uint256"
        }
      ],
      "stateMutability": "view",
      "type": "function"
    },
    {
      "inputs": [
        {
          "internalType": "uint256",
          "name": "",
          "type": "uint256"
        },
        {
          "internalType": "uint256",
          "name": "",
          "type": "uint256"
        }
      ],
      "name": "invoiceInvestors",
      "outputs": [
        {
          "internalType": "address",
          "name": "",
          "type": "address"
        }
      ],
      "stateMutability": "view",
      "type": "function"
    },
    {
      "inputs": [
        {
          "internalType": "uint256",
          "name": "invoiceId",
          "type": "uint256"
        },
        {
          "internalType": "address",
          "name": "investor",
          "type": "address"
        },
        {
          "internalType": "uint256",
          "name": "amount",
          "type": "uint256"
        },
        {
          "internalType": "uint256",
          "name": "targetFunding",
          "type": "uint256"
        },
        {
          "internalType": "uint256",
          "name": "currentFunding",
          "type": "uint256"
        },
        {
          "internalType": "address",
          "name": "supplier",
          "type": "address"
        }
      ],
      "name": "makeInvestment",
      "outputs": [
        {
          "internalType": "uint256",
          "name": "newTotalFunding",
          "type": "uint256"
        }
      ],
      "stateMutability": "nonpayable",
      "type": "function"
    },
    {
      "inputs": [
        {
          "internalType": "uint256",
          "name": "invoiceId",
          "type": "uint256"
        },
        {
          "internalType": "address",
          "name": "buyer",
          "type": "address"
        },
        {
          "internalType": "uint256",
          "name": "repaymentAmount",
          "type": "uint256"
        },
        {
          "internalType": "uint256",
          "name": "principalAmount",
          "type": "uint256"
        }
      ],
      "name": "processRepayment",
      "outputs": [
        {
          "internalType": "uint256",
          "name": "totalProfit",
          "type": "uint256"
        }
      ],
      "stateMutability": "nonpayable",
      "type": "function"
    },
    {
      "inputs": [
        {
          "internalType": "uint256",
          "name": "invoiceId",
          "type": "uint256"
        }
      ],
      "name": "refundInvestors",
      "outputs": [],
      "stateMutability": "nonpayable",
      "type": "function"
    },
    {
      "inputs": [
        {
          "internalType": "address",
          "name": "_coreContract",
          "type": "address"
        }
      ],
      "name": "setCoreContract",
      "outputs": [],
      "stateMutability": "nonpayable",
      "type": "function"
    },
    {
      "inputs": [
        {
          "internalType": "uint256",
          "name": "",
          "type": "uint256"
        }
      ],
      "name": "totalInvestments",
      "outputs": [
        {
          "internalType": "uint256",
          "name": "",
          "type": "uint256"
        }
      ],
      "stateMutability": "view",
      "type": "function"
    },
    {
      "inputs": [
        {
          "internalType": "uint256",
          "name": "invoiceId",
          "type": "uint256"
        },
        {
          "internalType": "address",
          "name": "supplier",
          "type": "address"
        },
        {
          "internalType": "uint256",
          "name": "amount",
          "type": "uint256"
        }
      ],
      "name": "transferFundsToSupplier",
      "outputs": [
        {
          "internalType": "bool",
          "name": "",
          "type": "bool"
        }
      ],
      "stateMutability": "nonpayable",
      "type": "function"
    },
    {
      "inputs": [],
      "name": "usdcToken",
      "outputs": [
        {
          "internalType": "contract MockUSDC",
          "name": "",
          "type": "address"
        }
      ],
      "stateMutability": "view",
      "type": "function"
    }
  ],
  "bytecode": "0x60a03461009657601f61131538819003918201601f19168301916001600160401b0383118484101761009b5780849260209460405283398101031261009657516001600160a01b038116908190036100965760805260405161126390816100b282396080518181816102b3015281816106d7015281816108cd015281816109ab01528181610b1001528181610e410152610f7f0152f35b600080fd5b634e487b7160e01b600052604160045260246000fdfe6040608081526004908136101561001557600080fd5b600091823560e01c9081630cef37e514610ef65781631028f52614610e7057816311eac85514610e2c57816338a7b16714610dea5781633dd8eecc14610a635781634e7f7a7714610a445781635312ea8e146109505781636f9fb98a1461089e57816371a316be1461081257816375a43620146107c45781639ee987b21461061c578163a945c5c3146105f4578163ac46e3791461059d578163b11b32d21461055b578163b18ce24f14610254578163bee0649e146101a4578163c626669314610113575063e80db5db146100e957600080fd5b3461010f578160031936011261010f57905490516001600160a01b039091168152602090f35b5080fd5b919050346101a05760203660031901126101a05761012f611077565b8354926001600160a01b039283851661015d57505016906bffffffffffffffffffffffff60a01b1617815580f35b906020606492519162461bcd60e51b8352820152601960248201527f436f726520636f6e747261637420616c726561647920736574000000000000006044820152fd5b8280fd5b90508234610251576020918260031936011261010f579192916001600160a01b036101cd611077565b1682528352818120908251808584549182815201908194845286842090845b81811061023d575050508161020291038261114d565b83519485948186019282875251809352850193925b82811061022657505050500390f35b835185528695509381019392810192600101610217565b8254845292880192600192830192016101ec565b80fd5b828434610251576102643661108d565b94929560018060a01b039561027d8787541633146110e9565b821561050e5784516323b872dd60e01b81526001600160a01b0390941684830190815230602082810191909152604082018590527f0000000000000000000000000000000000000000000000000000000000000000891695909493929185908290819060600103818b8a5af19081156105045788916104e7575b50156104b1578887526002845261030f86882061119d565b9781840398848a1161049e57885b815181101561046657826103318284611206565b51168c8b5260018089528a8c20828d5289528a8c20548061035e575b505050610359906111f7565b61031d565b610368908961121a565b86156104535789838c8f8f908c956103ab8d93519788968795869463a9059cbb60e01b86520491840160209093929193604081019460018060a01b031681520152565b03925af1908115610449578d9161041c575b50156103e0578d8c528852898b20908b528752888a208a90556103598d8061034d565b8a5162461bcd60e51b81528088018a9052601660248201527514995d1d5c9b881d1c985b9cd9995c8819985a5b195960521b6044820152606490fd5b61043c91508a3d8c11610442575b610434818361114d565b810190611185565b8f6103bd565b503d61042a565b8c513d8f823e3d90fd5b634e487b7160e01b8d526012885260248dfd5b868b8a8e7f104d340153d64ef2be46b9e7b5bb20bfce2392b3f9265d6e8264951595adf736828b81519081528587820152a251908152f35b634e487b7160e01b895260118452602489fd5b855162461bcd60e51b8152808301859052601060248201526f14995c185e5b595b9d0819985a5b195960821b6044820152606490fd5b6104fe9150853d871161044257610434818361114d565b8a6102f7565b87513d8a823e3d90fd5b845162461bcd60e51b8152602081840152602160248201527f52657061796d656e7420616d6f756e74206d75737420626520706f73697469766044820152606560f81b6064820152608490fd5b9050346101a057816003193601126101a057602092829161057a61105c565b90358252600185528282206001600160a01b039091168252845220549051908152f35b8284346102515781600319360112610251576105b7611077565b6001600160a01b031681526020929092528082208054602435939084101561025157506020926105e6916110bb565b91905490519160031b1c8152f35b9050346101a05760203660031901126101a05760209282913581526003845220549051908152f35b8391503461010f576020806003193601126101a05781359060018060a01b036106498186541633146110e9565b8285526002825261065b86862061119d565b94805b86518110156107b457826106728289611206565b511685835260018086528984208285528652898420549086898c846106a6575b5050505050506106a1906111f7565b61065e565b5163a9059cbb60e01b81526001600160a01b038616918101918252602082018590529190829081906040010381898b7f0000000000000000000000000000000000000000000000000000000000000000165af19081156107aa57869161078d575b501561075a577fc6a2f493a6e1d86aa8d73122837edb3ae830ccf081d0b273177ed6f6ea2b43bd876106a1959493878e8c95868352845280822087835284528120558d51908152a390898086898c610692565b8a5162461bcd60e51b8152808a01889052600d60248201526c1499599d5b990819985a5b1959609a1b6044820152606490fd5b6107a49150883d8a1161044257610434818361114d565b8c610707565b8c513d88823e3d90fd5b5080876003858784525281205580f35b82843461025157816003193601126102515760243592358152600260205281812090815484101561025157506020926107fc916110bb565b905491519160018060a01b039160031b1c168152f35b9050346101a0576020908160031936011261089a573583526003815281832054600282528284208054939491906108489061119d565b926060865196879682880194885283880152860152835180925280608086019401925b82811061087a57505050500390f35b83516001600160a01b03168552869550938101939281019260010161086b565b8380fd5b919050346101a057826003193601126101a05780516370a0823160e01b815230928101929092526020826024817f00000000000000000000000000000000000000000000000000000000000000006001600160a01b03165afa91821561094657839261090f575b6020838351908152f35b9091506020813d821161093e575b8161092a6020938361114d565b810103126101a05760209250519038610905565b3d915061091d565b81513d85823e3d90fd5b919050346101a05760203660031901126101a05782546001600160a01b039061097c90821633146110e9565b815163a9059cbb60e01b81523384820190815284356020828101919091529192839182908890829060400103927f0000000000000000000000000000000000000000000000000000000000000000165af1908115610a3a578491610a1c575b50156109e5578280f35b906020606492519162461bcd60e51b8352820152601160248201527015da5d1a191c985dd85b0819985a5b1959607a1b6044820152fd5b610a34915060203d811161044257610434818361114d565b386109db565b82513d86823e3d90fd5b8284346102515780600319360112610251578151908082526020820152f35b83833461010f5760c036600319011261010f57823592610a8161105c565b936044359360a4356001600160a01b038181169460843593928690036101a057610aaf8284541633146110e9565b8715610d9c57606435610ac2898661112a565b11610d6857818916958614610d175786516323b872dd60e01b81526001600160a01b03909916818a0190815230602082810191909152604082018a905299908a9082908190606001038187877f0000000000000000000000000000000000000000000000000000000000000000165af1908115610d0d578491610cf0575b5015610cb657918791879386835260018b528483208884528b528483205415610bd9575b5050907ff31343540affa723d26848192c2f28ab76925951531440b6f2e082030394314f93838387610bc7955260018c528181208982528c52818120610bab85825461112a565b905587815260038c5220610bc083825461112a565b905561112a565b9581519081528688820152a351908152f35b91809450869193505260028952868320918254680100000000000000009384821015610ca35790610c0f916001820181556110bb565b819291549060031b9189831b921b191617905585835280895286832090815492831015610c9057507ff31343540affa723d26848192c2f28ab76925951531440b6f2e082030394314f93878094610c70858c956001610bc7980181556110bb565b81549060031b908a821b91600019901b1916179055929350819550610b64565b634e487b7160e01b845260419052602483fd5b634e487b7160e01b865260418452602486fd5b865162461bcd60e51b815290810189905260146024820152731554d110c81d1c985b9cd9995c8819985a5b195960621b6044820152606490fd5b610d0791508a3d8c1161044257610434818361114d565b8a610b40565b88513d86823e3d90fd5b608490602088519162461bcd60e51b8352820152602560248201527f537570706c6965722063616e6e6f7420696e7665737420696e206f776e20696e604482015264766f69636560d81b6064820152fd5b606490602088519162461bcd60e51b8352820152600e60248201526d115e18d959591cc81d185c99d95d60921b6044820152fd5b608490602088519162461bcd60e51b8352820152602260248201527f496e766573746d656e7420616d6f756e74206d75737420626520706f73697469604482015261766560f01b6064820152fd5b50503461010f578060031936011261010f5780602092610e08611077565b6024358252600185528282206001600160a01b039091168252845220549051908152f35b50503461010f578160031936011261010f57517f00000000000000000000000000000000000000000000000000000000000000006001600160a01b03168152602090f35b50503461010f5780602092610e843661108d565b928452600187528584206001600160a01b03909216845290865293822054919382151580610eed575b610ebb575b50505051908152f35b610ee49394506301e1338091612710610ed7610edd938661121a565b0461121a565b049061112a565b90388080610eb2565b50801515610ead565b83833461010f57606036600319011261010f57610f1161105c565b8254604435916001600160a01b0391610f2d90831633146110e9565b8215611019578535855260209560038752848620548411610fe157845163a9059cbb60e01b81526001600160a01b039092169082019081526020810193909352918591839182908790829060400103927f0000000000000000000000000000000000000000000000000000000000000000165af1928315610fd65792610fb7575b50519015158152f35b610fcf919250833d851161044257610434818361114d565b9083610fae565b8251903d90823e3d90fd5b845162461bcd60e51b81529081018790526012602482015271496e73756666696369656e742066756e647360701b6044820152606490fd5b835162461bcd60e51b8152602081880152601760248201527f416d6f756e74206d75737420626520706f7369746976650000000000000000006044820152606490fd5b602435906001600160a01b038216820361107257565b600080fd5b600435906001600160a01b038216820361107257565b608090600319011261107257600435906024356001600160a01b038116810361107257906044359060643590565b80548210156110d35760005260206000200190600090565b634e487b7160e01b600052603260045260246000fd5b156110f057565b60405162461bcd60e51b815260206004820152601260248201527113db9b1e4818dbdc994818dbdb9d1c9858dd60721b6044820152606490fd5b9190820180921161113757565b634e487b7160e01b600052601160045260246000fd5b90601f8019910116810190811067ffffffffffffffff82111761116f57604052565b634e487b7160e01b600052604160045260246000fd5b90816020910312611072575180151581036110725790565b9060405191828154918282526020928383019160005283600020936000905b8282106111d4575050506111d29250038361114d565b565b85546001600160a01b0316845260019586019588955093810193909101906111bc565b60001981146111375760010190565b80518210156110d35760209160051b010190565b818102929181159184041417156111375756fea2646970667358221220e3b32918d692cfde7283f2f611994ebe28301403dff813b183d5b12303cea8c364736f6c63430008140033",
  "linkReferences": {},
  "deployedLinkReferences": {}
}