{
  "_format": "hh-sol-artifact-1",
  "contractName": "YieldXCore",
  "sourceName": "contracts/YieldXProtocol.sol",
  "abi": [
    {
      "inputs": [
        {
          "internalType": "address",
          "name": "_invoiceNFT",
          "type": "address"
        },
        {
          "internalType": "address",
          "name": "_usdcToken",
          "type": "address"
        },
        {
          "internalType": "address",
          "name": "_priceManager",
          "type": "address"
        },
        {
          "internalType": "address",
          "name": "_verificationModule",
          "type": "address"
        },
        {
          "internalType": "address",
          "name": "_investmentModule",
          "type": "address"
        },
        {
          "internalType": "address",
          "name": "_vrfModule",
          "type": "address"
        }
      ],
      "stateMutability": "nonpayable",
      "type": "constructor"
    },
    {
      "anonymous": false,
      "inputs": [
        {
          "indexed": true,
          "internalType": "uint256",
          "name": "invoiceId",
          "type": "uint256"
        },
        {
          "indexed": false,
          "internalType": "uint256",
          "name": "aprBasisPoints",
          "type": "uint256"
        }
      ],
      "name": "InvoiceApproved",
      "type": "event"
    },
    {
      "anonymous": false,
      "inputs": [
        {
          "indexed": true,
          "internalType": "uint256",
          "name": "invoiceId",
          "type": "uint256"
        },
        {
          "indexed": false,
          "internalType": "uint256",
          "name": "totalAmount",
          "type": "uint256"
        },
        {
          "indexed": false,
          "internalType": "uint256",
          "name": "numInvestors",
          "type": "uint256"
        }
      ],
      "name": "InvoiceFullyFunded",
      "type": "event"
    },
    {
      "anonymous": false,
      "inputs": [
        {
          "indexed": true,
          "internalType": "uint256",
          "name": "invoiceId",
          "type": "uint256"
        },
        {
          "indexed": false,
          "internalType": "uint256",
          "name": "fundingAmount",
          "type": "uint256"
        }
      ],
      "name": "InvoiceFunded",
      "type": "event"
    },
    {
      "anonymous": false,
      "inputs": [
        {
          "indexed": true,
          "internalType": "uint256",
          "name": "invoiceId",
          "type": "uint256"
        },
        {
          "indexed": false,
          "internalType": "string",
          "name": "reason",
          "type": "string"
        }
      ],
      "name": "InvoiceRejected",
      "type": "event"
    },
    {
      "anonymous": false,
      "inputs": [
        {
          "indexed": true,
          "internalType": "uint256",
          "name": "invoiceId",
          "type": "uint256"
        },
        {
          "indexed": false,
          "internalType": "uint256",
          "name": "repaymentAmount",
          "type": "uint256"
        },
        {
          "indexed": false,
          "internalType": "uint256",
          "name": "profitDistributed",
          "type": "uint256"
        }
      ],
      "name": "InvoiceRepaid",
      "type": "event"
    },
    {
      "anonymous": false,
      "inputs": [
        {
          "indexed": true,
          "internalType": "uint256",
          "name": "invoiceId",
          "type": "uint256"
        },
        {
          "indexed": true,
          "internalType": "address",
          "name": "supplier",
          "type": "address"
        },
        {
          "indexed": false,
          "internalType": "uint256",
          "name": "amount",
          "type": "uint256"
        },
        {
          "indexed": false,
          "internalType": "uint256",
          "name": "targetFunding",
          "type": "uint256"
        }
      ],
      "name": "InvoiceSubmitted",
      "type": "event"
    },
    {
      "anonymous": false,
      "inputs": [
        {
          "indexed": true,
          "internalType": "uint256",
          "name": "invoiceId",
          "type": "uint256"
        },
        {
          "indexed": false,
          "internalType": "uint256",
          "name": "estimatedAPR",
          "type": "uint256"
        },
        {
          "indexed": false,
          "internalType": "uint256",
          "name": "riskScore",
          "type": "uint256"
        }
      ],
      "name": "InvoiceVerified",
      "type": "event"
    },
    {
      "inputs": [
        {
          "internalType": "uint256",
          "name": "invoiceId",
          "type": "uint256"
        },
        {
          "internalType": "string",
          "name": "reason",
          "type": "string"
        }
      ],
      "name": "emergencyRejectInvoice",
      "outputs": [],
      "stateMutability": "nonpayable",
      "type": "function"
    },
    {
      "inputs": [],
      "name": "getAllInvoices",
      "outputs": [
        {
          "internalType": "uint256[]",
          "name": "",
          "type": "uint256[]"
        }
      ],
      "stateMutability": "view",
      "type": "function"
    },
    {
      "inputs": [],
      "name": "getContractInfo",
      "outputs": [
        {
          "internalType": "string",
          "name": "name",
          "type": "string"
        },
        {
          "internalType": "string",
          "name": "version_",
          "type": "string"
        },
        {
          "internalType": "address",
          "name": "owner_",
          "type": "address"
        },
        {
          "internalType": "bool",
          "name": "paused_",
          "type": "bool"
        },
        {
          "internalType": "uint256",
          "name": "totalInvoices",
          "type": "uint256"
        }
      ],
      "stateMutability": "view",
      "type": "function"
    },
    {
      "inputs": [
        {
          "internalType": "uint256",
          "name": "invoiceId",
          "type": "uint256"
        }
      ],
      "name": "getInvestmentBasics",
      "outputs": [
        {
          "internalType": "uint256",
          "name": "targetFunding",
          "type": "uint256"
        },
        {
          "internalType": "uint256",
          "name": "currentFunding",
          "type": "uint256"
        },
        {
          "internalType": "uint256",
          "name": "remainingFunding",
          "type": "uint256"
        },
        {
          "internalType": "uint256",
          "name": "numInvestors",
          "type": "uint256"
        }
      ],
      "stateMutability": "view",
      "type": "function"
    },
    {
      "inputs": [],
      "name": "getInvestmentModule",
      "outputs": [
        {
          "internalType": "address",
          "name": "",
          "type": "address"
        }
      ],
      "stateMutability": "view",
      "type": "function"
    },
    {
      "inputs": [],
      "name": "getInvestmentOpportunities",
      "outputs": [
        {
          "internalType": "uint256[]",
          "name": "",
          "type": "uint256[]"
        }
      ],
      "stateMutability": "view",
      "type": "function"
    },
    {
      "inputs": [
        {
          "internalType": "address",
          "name": "investor",
          "type": "address"
        },
        {
          "internalType": "uint256",
          "name": "invoiceId",
          "type": "uint256"
        }
      ],
      "name": "getInvestorData",
      "outputs": [
        {
          "internalType": "uint256",
          "name": "",
          "type": "uint256"
        }
      ],
      "stateMutability": "view",
      "type": "function"
    },
    {
      "inputs": [
        {
          "internalType": "address",
          "name": "investor",
          "type": "address"
        }
      ],
      "name": "getInvestorInvoices",
      "outputs": [
        {
          "internalType": "uint256[]",
          "name": "",
          "type": "uint256[]"
        }
      ],
      "stateMutability": "view",
      "type": "function"
    },
    {
      "inputs": [
        {
          "internalType": "uint256",
          "name": "invoiceId",
          "type": "uint256"
        }
      ],
      "name": "getInvoiceAmount",
      "outputs": [
        {
          "internalType": "uint256",
          "name": "",
          "type": "uint256"
        }
      ],
      "stateMutability": "view",
      "type": "function"
    },
    {
      "inputs": [
        {
          "internalType": "uint256",
          "name": "invoiceId",
          "type": "uint256"
        }
      ],
      "name": "getInvoiceBasics",
      "outputs": [
        {
          "internalType": "uint256",
          "name": "id",
          "type": "uint256"
        },
        {
          "internalType": "address",
          "name": "supplier",
          "type": "address"
        },
        {
          "internalType": "uint256",
          "name": "amount",
          "type": "uint256"
        },
        {
          "internalType": "enum YieldXCore.InvoiceStatus",
          "name": "status",
          "type": "uint8"
        }
      ],
      "stateMutability": "view",
      "type": "function"
    },
    {
      "inputs": [
        {
          "internalType": "uint256",
          "name": "invoiceId",
          "type": "uint256"
        }
      ],
      "name": "getInvoiceBuyer",
      "outputs": [
        {
          "internalType": "address",
          "name": "",
          "type": "address"
        }
      ],
      "stateMutability": "view",
      "type": "function"
    },
    {
      "inputs": [
        {
          "internalType": "uint256",
          "name": "invoiceId",
          "type": "uint256"
        }
      ],
      "name": "getInvoiceCommodity",
      "outputs": [
        {
          "internalType": "string",
          "name": "",
          "type": "string"
        }
      ],
      "stateMutability": "view",
      "type": "function"
    },
    {
      "inputs": [
        {
          "internalType": "uint256",
          "name": "invoiceId",
          "type": "uint256"
        }
      ],
      "name": "getInvoiceFinancials",
      "outputs": [
        {
          "internalType": "uint256",
          "name": "targetFunding",
          "type": "uint256"
        },
        {
          "internalType": "uint256",
          "name": "currentFunding",
          "type": "uint256"
        },
        {
          "internalType": "uint256",
          "name": "aprBasisPoints",
          "type": "uint256"
        },
        {
          "internalType": "uint256",
          "name": "dueDate",
          "type": "uint256"
        }
      ],
      "stateMutability": "view",
      "type": "function"
    },
    {
      "inputs": [
        {
          "internalType": "uint256",
          "name": "invoiceId",
          "type": "uint256"
        }
      ],
      "name": "getInvoiceLocations",
      "outputs": [
        {
          "internalType": "string",
          "name": "supplierCountry",
          "type": "string"
        },
        {
          "internalType": "string",
          "name": "buyerCountry",
          "type": "string"
        }
      ],
      "stateMutability": "view",
      "type": "function"
    },
    {
      "inputs": [
        {
          "internalType": "uint256",
          "name": "invoiceId",
          "type": "uint256"
        }
      ],
      "name": "getInvoiceMetadata",
      "outputs": [
        {
          "internalType": "uint256",
          "name": "createdAt",
          "type": "uint256"
        },
        {
          "internalType": "bool",
          "name": "documentVerified",
          "type": "bool"
        },
        {
          "internalType": "uint256",
          "name": "remainingFunding",
          "type": "uint256"
        }
      ],
      "stateMutability": "view",
      "type": "function"
    },
    {
      "inputs": [
        {
          "internalType": "uint256",
          "name": "invoiceId",
          "type": "uint256"
        }
      ],
      "name": "getInvoiceParties",
      "outputs": [
        {
          "internalType": "address",
          "name": "buyer",
          "type": "address"
        },
        {
          "internalType": "string",
          "name": "exporterName",
          "type": "string"
        },
        {
          "internalType": "string",
          "name": "buyerName",
          "type": "string"
        },
        {
          "internalType": "string",
          "name": "commodity",
          "type": "string"
        }
      ],
      "stateMutability": "view",
      "type": "function"
    },
    {
      "inputs": [
        {
          "internalType": "uint256",
          "name": "invoiceId",
          "type": "uint256"
        }
      ],
      "name": "getInvoiceStatus",
      "outputs": [
        {
          "internalType": "enum YieldXCore.InvoiceStatus",
          "name": "",
          "type": "uint8"
        }
      ],
      "stateMutability": "view",
      "type": "function"
    },
    {
      "inputs": [
        {
          "internalType": "uint256",
          "name": "invoiceId",
          "type": "uint256"
        }
      ],
      "name": "getInvoiceSupplier",
      "outputs": [
        {
          "internalType": "address",
          "name": "",
          "type": "address"
        }
      ],
      "stateMutability": "view",
      "type": "function"
    },
    {
      "inputs": [
        {
          "internalType": "enum YieldXCore.InvoiceStatus",
          "name": "status",
          "type": "uint8"
        }
      ],
      "name": "getInvoicesByStatus",
      "outputs": [
        {
          "internalType": "uint256[]",
          "name": "",
          "type": "uint256[]"
        }
      ],
      "stateMutability": "view",
      "type": "function"
    },
    {
      "inputs": [],
      "name": "getProtocolStats",
      "outputs": [
        {
          "internalType": "uint256",
          "name": "totalInvoices",
          "type": "uint256"
        },
        {
          "internalType": "uint256",
          "name": "totalFundsRaised",
          "type": "uint256"
        },
        {
          "internalType": "uint256",
          "name": "pendingInvoices",
          "type": "uint256"
        },
        {
          "internalType": "uint256",
          "name": "verifiedInvoices",
          "type": "uint256"
        },
        {
          "internalType": "uint256",
          "name": "fundedInvoices",
          "type": "uint256"
        }
      ],
      "stateMutability": "view",
      "type": "function"
    },
    {
      "inputs": [
        {
          "internalType": "address",
          "name": "supplier",
          "type": "address"
        }
      ],
      "name": "getSupplierInvoices",
      "outputs": [
        {
          "internalType": "uint256[]",
          "name": "",
          "type": "uint256[]"
        }
      ],
      "stateMutability": "view",
      "type": "function"
    },
    {
      "inputs": [],
      "name": "getVRFModule",
      "outputs": [
        {
          "internalType": "address",
          "name": "",
          "type": "address"
        }
      ],
      "stateMutability": "view",
      "type": "function"
    },
    {
      "inputs": [],
      "name": "getVerificationModule",
      "outputs": [
        {
          "internalType": "address",
          "name": "",
          "type": "address"
        }
      ],
      "stateMutability": "view",
      "type": "function"
    },
    {
      "inputs": [],
      "name": "initializeProtocol",
      "outputs": [],
      "stateMutability": "nonpayable",
      "type": "function"
    },
    {
      "inputs": [
        {
          "internalType": "uint256",
          "name": "invoiceId",
          "type": "uint256"
        },
        {
          "internalType": "uint256",
          "name": "amount",
          "type": "uint256"
        }
      ],
      "name": "investInInvoice",
      "outputs": [],
      "stateMutability": "nonpayable",
      "type": "function"
    },
    {
      "inputs": [],
      "name": "investmentModule",
      "outputs": [
        {
          "internalType": "contract YieldXInvestmentModule",
          "name": "",
          "type": "address"
        }
      ],
      "stateMutability": "view",
      "type": "function"
    },
    {
      "inputs": [],
      "name": "invoiceCounter",
      "outputs": [
        {
          "internalType": "uint256",
          "name": "",
          "type": "uint256"
        }
      ],
      "stateMutability": "view",
      "type": "function"
    },
    {
      "inputs": [],
      "name": "invoiceNFT",
      "outputs": [
        {
          "internalType": "contract YieldXInvoiceNFT",
          "name": "",
          "type": "address"
        }
      ],
      "stateMutability": "view",
      "type": "function"
    },
    {
      "inputs": [
        {
          "internalType": "uint256",
          "name": "",
          "type": "uint256"
        }
      ],
      "name": "invoices",
      "outputs": [
        {
          "internalType": "uint256",
          "name": "id",
          "type": "uint256"
        },
        {
          "internalType": "address",
          "name": "supplier",
          "type": "address"
        },
        {
          "internalType": "address",
          "name": "buyer",
          "type": "address"
        },
        {
          "internalType": "uint256",
          "name": "amount",
          "type": "uint256"
        },
        {
          "internalType": "string",
          "name": "commodity",
          "type": "string"
        },
        {
          "internalType": "string",
          "name": "supplierCountry",
          "type": "string"
        },
        {
          "internalType": "string",
          "name": "buyerCountry",
          "type": "string"
        },
        {
          "internalType": "string",
          "name": "exporterName",
          "type": "string"
        },
        {
          "internalType": "string",
          "name": "buyerName",
          "type": "string"
        },
        {
          "internalType": "uint256",
          "name": "dueDate",
          "type": "uint256"
        },
        {
          "internalType": "uint256",
          "name": "aprBasisPoints",
          "type": "uint256"
        },
        {
          "internalType": "enum YieldXCore.InvoiceStatus",
          "name": "status",
          "type": "uint8"
        },
        {
          "internalType": "uint256",
          "name": "createdAt",
          "type": "uint256"
        },
        {
          "internalType": "bool",
          "name": "documentVerified",
          "type": "bool"
        },
        {
          "internalType": "uint256",
          "name": "targetFunding",
          "type": "uint256"
        },
        {
          "internalType": "uint256",
          "name": "currentFunding",
          "type": "uint256"
        }
      ],
      "stateMutability": "view",
      "type": "function"
    },
    {
      "inputs": [
        {
          "internalType": "uint256",
          "name": "invoiceId",
          "type": "uint256"
        }
      ],
      "name": "isInvoiceVerified",
      "outputs": [
        {
          "internalType": "bool",
          "name": "",
          "type": "bool"
        }
      ],
      "stateMutability": "view",
      "type": "function"
    },
    {
      "inputs": [
        {
          "internalType": "uint256",
          "name": "invoiceId",
          "type": "uint256"
        },
        {
          "internalType": "bool",
          "name": "isValid",
          "type": "bool"
        },
        {
          "internalType": "uint256",
          "name": "riskScore",
          "type": "uint256"
        },
        {
          "internalType": "string",
          "name": "creditRating",
          "type": "string"
        }
      ],
      "name": "onDocumentVerificationComplete",
      "outputs": [],
      "stateMutability": "nonpayable",
      "type": "function"
    },
    {
      "inputs": [
        {
          "internalType": "uint256",
          "name": "invoiceId",
          "type": "uint256"
        },
        {
          "internalType": "uint256",
          "name": "randomness",
          "type": "uint256"
        }
      ],
      "name": "onVRFComplete",
      "outputs": [],
      "stateMutability": "nonpayable",
      "type": "function"
    },
    {
      "inputs": [],
      "name": "owner",
      "outputs": [
        {
          "internalType": "address",
          "name": "",
          "type": "address"
        }
      ],
      "stateMutability": "view",
      "type": "function"
    },
    {
      "inputs": [],
      "name": "pause",
      "outputs": [],
      "stateMutability": "nonpayable",
      "type": "function"
    },
    {
      "inputs": [],
      "name": "paused",
      "outputs": [
        {
          "internalType": "bool",
          "name": "",
          "type": "bool"
        }
      ],
      "stateMutability": "view",
      "type": "function"
    },
    {
      "inputs": [],
      "name": "priceManager",
      "outputs": [
        {
          "internalType": "contract YieldXPriceManager",
          "name": "",
          "type": "address"
        }
      ],
      "stateMutability": "view",
      "type": "function"
    },
    {
      "inputs": [
        {
          "internalType": "uint256",
          "name": "invoiceId",
          "type": "uint256"
        }
      ],
      "name": "repayInvoice",
      "outputs": [],
      "stateMutability": "nonpayable",
      "type": "function"
    },
    {
      "inputs": [
        {
          "internalType": "address",
          "name": "buyer",
          "type": "address"
        },
        {
          "internalType": "uint256",
          "name": "amount",
          "type": "uint256"
        },
        {
          "internalType": "string",
          "name": "commodity",
          "type": "string"
        },
        {
          "internalType": "string",
          "name": "supplierCountry",
          "type": "string"
        },
        {
          "internalType": "string",
          "name": "buyerCountry",
          "type": "string"
        },
        {
          "internalType": "string",
          "name": "exporterName",
          "type": "string"
        },
        {
          "internalType": "string",
          "name": "buyerName",
          "type": "string"
        },
        {
          "internalType": "uint256",
          "name": "dueDate",
          "type": "uint256"
        },
        {
          "internalType": "string",
          "name": "documentHash",
          "type": "string"
        }
      ],
      "name": "submitInvoice",
      "outputs": [
        {
          "internalType": "uint256",
          "name": "",
          "type": "uint256"
        }
      ],
      "stateMutability": "nonpayable",
      "type": "function"
    },
    {
      "inputs": [
        {
          "internalType": "address",
          "name": "",
          "type": "address"
        },
        {
          "internalType": "uint256",
          "name": "",
          "type": "uint256"
        }
      ],
      "name": "supplierInvoices",
      "outputs": [
        {
          "internalType": "uint256",
          "name": "",
          "type": "uint256"
        }
      ],
      "stateMutability": "view",
      "type": "function"
    },
    {
      "inputs": [
        {
          "internalType": "address",
          "name": "newOwner",
          "type": "address"
        }
      ],
      "name": "transferOwnership",
      "outputs": [],
      "stateMutability": "nonpayable",
      "type": "function"
    },
    {
      "inputs": [],
      "name": "unpause",
      "outputs": [],
      "stateMutability": "nonpayable",
      "type": "function"
    },
    {
      "inputs": [],
      "name": "usdcToken",
      "outputs": [
        {
          "internalType": "contract MockUSDC",
          "name": "",
          "type": "address"
        }
      ],
      "stateMutability": "view",
      "type": "function"
    },
    {
      "inputs": [],
      "name": "verificationModule",
      "outputs": [
        {
          "internalType": "contract YieldXVerificationModule",
          "name": "",
          "type": "address"
        }
      ],
      "stateMutability": "view",
      "type": "function"
    },
    {
      "inputs": [],
      "name": "version",
      "outputs": [
        {
          "internalType": "string",
          "name": "",
          "type": "string"
        }
      ],
      "stateMutability": "pure",
      "type": "function"
    },
    {
      "inputs": [],
      "name": "vrfModule",
      "outputs": [
        {
          "internalType": "contract YieldXVRFModule",
          "name": "",
          "type": "address"
        }
      ],
      "stateMutability": "view",
      "type": "function"
    }
  ],
  "bytecode": "0x61014034620001a257601f62003df338819003918201601f19168301916001600160401b03831184841017620001a75780849260c094604052833981010312620001a2576200004e81620001bd565b6200005c60208301620001bd565b6200006a60408401620001bd565b906200007960608501620001bd565b6200009560a06200008d60808801620001bd565b9601620001bd565b6001600160a01b0394851660805291841660a05291831660c05290821660e0529181166101009081529116610120908152600080546001600160a01b03191633179055604051613c209290919083620001d38439608051838181610615015281816123440152613195015260a0518361364d015260c05183610d62015260e051838181610397015281816113b6015281816115c101528181612a3e015261309b0152518281816102200152818161050201528181610efc0152818161100001528181611b9601528181611f9001528181612468015281816130f2015281816132aa015261333b015251818181610268015281816103400152818161143a01528181611ca901526131430152f35b600080fd5b634e487b7160e01b600052604160045260246000fd5b51906001600160a01b0382168203620001a25756fe60a0604052600436101561001257600080fd5b6000803560e01c806237dd95146136c6578063059552971461367c5780630bf61c29146115ab57806311eac85514613637578063178c5b52146135e457806321cbf5e01461357b578063285c8eac1461352557806329c1d0991461336a57806336e845fd1461332557806338a7b1671461324a5780633c4406811461306e5780633f4ba83a1461303c57806340a3db9b14612591578063445e9faa146123735780634bb6f06d1461232e5780634e6d14051461215b57806354fd4d50146120dc578063559034df14611eab578063570bdad614611e405780635c975abb14611e1d5780635d597ab314611dc95780636c9c118a14611b2e57806373114f3c14611a55578063771aceef1461182f5780637cc1f867146117095780637e37afbb1461164c5780638456cb59146116175780638da5cb5b146115f057806397d41360146115ab578063a21d89a214611364578063a57b381c14611346578063ad10441c146112f6578063b19782ef14611273578063b55eea1114610252578063bc9a310e146110e7578063bee0649e14610fbc578063c20ceb9b14610d91578063c7e1ffe314610d4c578063c9108b9714610bbc578063ccc2405714610a2c578063e228c7cc14610888578063efbd43d414610326578063f2fde38b14610297578063f4f5f583146102525763fd3a2c1b1461020b57600080fd5b3461024f578060031936011261024f576040517f00000000000000000000000000000000000000000000000000000000000000006001600160a01b03168152602090f35b80fd5b503461024f578060031936011261024f576040517f00000000000000000000000000000000000000000000000000000000000000006001600160a01b03168152602090f35b503461024f57602036600319011261024f576102b1613784565b8154906001600160a01b03906102ca338385161461399b565b169081156102e2576001600160a01b03191617815580f35b606460405162461bcd60e51b815260206004820152602060248201527f4e6577206f776e65722063616e6e6f74206265207a65726f20616464726573736044820152fd5b503461024f5761033536613985565b506001600160a01b037f0000000000000000000000000000000000000000000000000000000000000000811690338290036108515782845260209060038252604085209260405191638cb1cbcd60e01b835285600484015260249187848481857f0000000000000000000000000000000000000000000000000000000000000000165afa9384156107be57869486918a916107c9575b5060038601549260098701548b8b60405196879586948593625c3f2f60e01b855260048501528b840160e090528c60e48501906004019061040b916138b4565b600319858203810160448701529d8e9161042890600583016138b4565b918683030160648701526006019061043f916138b4565b92608485015260a484015260c483015203925af19586156107be578791899761078b575b5085600b8289600a7f427e01b094cee80465b93663a800e401f0eb28213a4fbd6d1cc217f066036654950155019760ff199860048a825416179055604051908152a2858752600384526040872090600b82019260ff84541660098110156107785760040361073e57600f83015494600184018a888583541660648d6040519485938492630cef37e560e01b84526004840152898301528c6044830152897f0000000000000000000000000000000000000000000000000000000000000000165af1908115610733578c916106fa575b50156106c457839054169060038501549460098101549160ff88541660098110156106b15792828b9795928f94958f9896600c015491600a840154936040519c8d9b8c9a8b9963698a517960e01b8b5260048b0152890152604488016101809052610184880160048301906105a6916138b4565b9060648901528288820301608489015260078201906105c4916138b4565b878103830160a48901526105db90600883016138b4565b918783030160c4880152600601906105f2916138b4565b9360e48601526101048501526101248401528361014484015261016483015203927f0000000000000000000000000000000000000000000000000000000000000000165af180156106a657610677575b5060057f430f5c27525242f9d67ea1f77d37d42af15eeccaf0b9a743214f3cf6c6062a9e94825416179055604051908152a280f35b8390813d831161069f575b61068c81836137f7565b8101031261069a5738610642565b600080fd5b503d610682565b6040513d89823e3d90fd5b634e487b7160e01b8e526021600452858efd5b60405162461bcd60e51b815260048101899052600f818501526e151c985b9cd9995c8819985a5b1959608a1b6044820152606490fd5b90508881813d831161072c575b61071181836137f7565b810103126107285761072290613a5a565b38610532565b8b80fd5b503d610707565b6040513d8e823e3d90fd5b8560146064926040519262461bcd60e51b8452600484015282015273125b9d9bda58d9481b9bdd08185c1c1c9bdd995960621b6044820152fd5b50634e487b7160e01b8952602160045288fd5b86809298508193503d83116107b7575b6107a581836137f7565b8101031261069a575194869085610463565b503d61079b565b6040513d8a823e3d90fd5b955050503d8089863e6107dc81866137f7565b84019360c08186031261084d576107f281613a5a565b506107fe868201613a5a565b506040810151906001600160401b03918281116108495786610821918301613a67565b50606081015190608081015192831161084957889688936108429201613a67565b50386103cb565b8a80fd5b8880fd5b60405162461bcd60e51b815260206004820152600f60248201526e4f6e6c7920565246206d6f64756c6560881b6044820152606490fd5b503461024f57602036600319011261024f5760043580151580610a20575b6108af90613aac565b8152600360205260408120604051906108c7826137c8565b8054825260018060a01b03806001830154169260208101938452816002840154166040820152600383015492606082019384526040516109158161090e81600486016138b4565b03826137f7565b608083015260405161092e8161090e81600586016138b4565b60a08301526040516109478161090e81600686016138b4565b60c08301526040516109608161090e81600786016138b4565b60e08301526040516109798161090e81600886016138b4565b6101008301526009810154610120830152600a81015461014083015260ff600b82015416956009871015610a0c57509181600f8794608098610160610a0a98960152600c81015461018084015260ff600d8201541615156101a0840152600e8101546101c084015201546101e082015251945116905190604051948552602085015260408401526060830190613719565bf35b634e487b7160e01b81526021600452602490fd5b506001548111156108a6565b503461024f57602036600319011261024f5760043580151580610bb0575b610a5390613aac565b815260036020526040812060405191610a6b836137c8565b8154835260018060a01b03806001840154166020850152600283015416604084015260038201546060840152604051610aab8161090e81600487016138b4565b6080840152604051610ac48161090e81600587016138b4565b60a0840152604051610add8161090e81600687016138b4565b60c0840152604051610af68161090e81600787016138b4565b60e0840152604051610b0f8161090e81600887016138b4565b6101008401526009820154926101208101938452600a83015491610140820192835260ff600b85015416906009821015610a0c57509181610bac936101606101e097940152600c85015461018082015260ff600d8601541615156101a0820152600f600e86015495866101c08401520154958691015251905190604051948594859094939260609260808301968352602083015260408201520152565b0390f35b50600154811115610a4a565b503461024f57602036600319011261024f5760043580151580610d40575b610be390613aac565b815260036020526040812090604051610bfb816137c8565b8254815260018060a01b03806001850154166020830152600284015416604082015260038301546060820152604051610c3b8161090e81600488016138b4565b608082015260405192610c5c84610c5581600585016138b4565b03856137f7565b60a0820193845260405192610c7884610c5581600686016138b4565b60c08301938452604051610c938161090e81600787016138b4565b60e0840152604051610cac8161090e81600887016138b4565b6101008401526009820154610120840152600a82015461014084015260ff600b83015416906009821015610a0c5750916101e0600f610d329693610bac95610160850152600c81015461018085015260ff600d8201541615156101a0850152600e8101546101c0850152015491015251915160405193849360408552604085019061375f565b90838203602085015261375f565b50600154811115610bda565b503461024f578060031936011261024f576040517f00000000000000000000000000000000000000000000000000000000000000006001600160a01b03168152602090f35b503461024f57602036600319011261024f5760043580151580610fb0575b610db890613aac565b80825260036020526040822060405191610dd1836137c8565b8154835260018060a01b039081600184015416602085015281600284015416604085015260038301546060850152604051610e138161090e81600488016138b4565b6080850152604051610e2c8161090e81600588016138b4565b60a0850152604051610e458161090e81600688016138b4565b60c0850152604051610e5e8161090e81600788016138b4565b60e0850152604051610e778161090e81600888016138b4565b6101008501526009830154610120850152600a83015461014085015260ff600b840154166009811015610f9c57908591610160860152600c84015461018086015260ff600d8501541615156101a08601526101e0600f600e860154956101c08801968752015495019485526024604051809481936338d18b5f60e11b835260048301527f0000000000000000000000000000000000000000000000000000000000000000165afa938415610f90578094610f63575b5050610bac9051915192610f408484613b97565b604051948594859094939260609260808301968352602083015260408201520152565b610bac92945090610f85913d8091833e610f7d81836137f7565b810190613b01565b509050929038610f2c565b604051903d90823e3d90fd5b634e487b7160e01b86526021600452602486fd5b50600154811115610daf565b503461024f576020908160031936011261024f5780602491610fdc613784565b604051635f70324f60e11b81526001600160a01b03918216600482015293849182907f0000000000000000000000000000000000000000000000000000000000000000165afa9182156110da57819261103e575b60405180610bac858261394a565b9091503d8083833e61105081836137f7565b81019083818303126110d2578051906001600160401b0382116110d6570181601f820112156110d25780519061108582613aea565b9361109360405195866137f7565b828552858086019360051b83010193841161024f57508401905b8282106110c357505050610bac91503880611030565b815181529084019084016110ad565b8280fd5b8380fd5b50604051903d90823e3d90fd5b503461024f57602036600319011261024f5760043580151580611267575b61110e90613aac565b8152600360205260408120604051611125816137c8565b8154815260018060a01b038060018401541660208301526002830154166040820152600382015460608201526040516111658161090e81600487016138b4565b608082015260405161117e8161090e81600587016138b4565b60a08201526040516111978161090e81600687016138b4565b60c08201526040516111b08161090e81600787016138b4565b60e08201526040516111c98161090e81600887016138b4565b6101008201526009820154610120820152600a82015461014082015260ff600b83015416600981101561125357606093506101608201526112406101e0600c840154938461018085015260ff600d82015416151593846101a0820152600f600e83015492836101c084015201549283910152613b97565b9060405192835260208301526040820152f35b634e487b7160e01b84526021600452602484fd5b50600154811115611105565b503461024f576020806003193601126112f2576001600160a01b03611296613784565b1682526004815260408220916040518092808554928381520194835280832092905b8282106112db57610bac856112cf818903826137f7565b6040519182918261394a565b8354865294850194600193840193909101906112b8565b5080fd5b503461024f57602036600319011261024f5760ff600d60406020936004358015158061133a575b61132690613aac565b815260038552200154166040519015158152f35b5060015481111561131d565b503461024f578060031936011261024f576020600154604051908152f35b503461024f57608036600319011261024f57600435602435801515908181036110d657604435916064356001600160401b0381116115a7576113aa903690600401613833565b506001600160a01b03917f00000000000000000000000000000000000000000000000000000000000000008316330361156257848652602091600383526040872091600d830160ff199260ff8483541691161790556000146114f757816009916002600b869501918254161790550154604460405180958193633a16b8ff60e21b835288600484015260248301527f0000000000000000000000000000000000000000000000000000000000000000165afa9182156114ec57859261149d575b50907fb08f24163c56b1d0b9f8303da54a8aaae5db5ec8eb5847c167142ef36a827b58926040928351928352820152a280f35b91508082813d83116114e5575b6114b481836137f7565b8101031261069a579051907fb08f24163c56b1d0b9f8303da54a8aaae5db5ec8eb5847c167142ef36a827b5861146a565b503d6114aa565b6040513d87823e3d90fd5b907f30f1a1ed9ed0adbcb85235780494613b9e2542cc72f0c5ede21be804cd6470d4945060609350600b6008910191825416179055601c604051918083528201527f4661696c656420646f63756d656e7420766572696669636174696f6e000000006040820152a280f35b60405162461bcd60e51b815260206004820152601860248201527f4f6e6c7920766572696669636174696f6e206d6f64756c6500000000000000006044820152606490fd5b8580fd5b503461024f578060031936011261024f576040517f00000000000000000000000000000000000000000000000000000000000000006001600160a01b03168152602090f35b503461024f578060031936011261024f57546040516001600160a01b039091168152602090f35b503461024f578060031936011261024f5761163c60018060a01b03825416331461399b565b600160ff19600254161760025580f35b503461024f578060031936011261024f5760015461166981613ba4565b829160015b818111156116bc57505061168182613ba4565b925b8281106116985760405180610bac868261394a565b806116a66116b79284613bd6565b516116b18287613bd6565b52613a38565b611683565b808552600360205260ff600b604087200154166009811015610f9c576002146116ee575b6116e990613a38565b61166e565b9261170181856116b16116e99487613bd6565b9390506116e0565b503461024f578060031936011261024f5760405163054fd4d560e41b8152908082600481305afa9182156110da5781926117f0575b505460025460015460408051936001600160a01b03169260ff169084016001600160401b038111858210176117da576117b6956117c491604052601c86527f5969656c64582050726f746f636f6c202d20537461636b205361666500000000602087015260405196879660a0885260a088019061375f565b90868203602088015261375f565b9260408501521515606084015260808301520390f35b634e487b7160e01b600052604160045260246000fd5b9091503d8083833e61180281836137f7565b81016020828203126110d25781516001600160401b0381116110d6576118289201613a67565b903861173e565b503461024f578060031936011261024f5760018054909180808085815b8682111561187657505060a095506040519485526020850152604084015260608301526080820152f35b909283825260036020818152604084209060405192611894846137c8565b8254845260018060a01b0391828d85015416908501526002918284015416604085015282015460608401526040516118d38161090e81600487016138b4565b60808401526040516005906118ee8161090e818588016138b4565b60a08501526040519160069261190a8161090e818789016138b4565b60c08601526040516119238161090e81600789016138b4565b60e086015260405161193c8161090e81600889016138b4565b61010086015260099384810154610120870152600a81015461014087015260ff80600b8301541695861015611a41576101e091600f91876101608a0152600c8201546101808a0152600d8201541615156101a0890152600e8101546101c08901520154950194855283158015611a38575b156119cf5750505050506119c36119c991613a38565b93613a38565b9061184c565b9798949783036119ef57505050506119e96119c991613a38565b94613a38565b8298949814918215611a2e575b5050611a0d575b506119c990613a38565b956119c99193611a1f611a2792613a38565b975190613a15565b9290611a03565b14905038806119fc565b508c84146119ad565b634e487b7160e01b89526021600452602489fd5b503461024f576020806003193601126112f25760096004358181101580611b2a5760015490611a8382613ba4565b93869560015b84811115611ac757888888611a9d82613ba4565b925b828110611ab45760405180610bac868261394a565b806116a6611ac29284613bd6565b611a9f565b8089526003825260408920600b015460ff1684611b165783811015611b16578614611afb575b611af690613a38565b611a89565b96611b0e81896116b1611af6948b613bd6565b979050611aed565b634e487b7160e01b8a52602160045260248afd5b8480fd5b503461024f57611b3d36613985565b9080151580611dbd575b611b5090613aac565b611b5f60ff60025416156139d4565b8083526020916003835260408420600b810160ff8154166009811015611da957600203611d6d57908593929160018060a01b0392837f00000000000000000000000000000000000000000000000000000000000000001692600e8101908154600f8201918760018454920154169160405195630f763bb360e21b87528a600488015233602488015260448701526064860152608485015260a4840152888360c4818b895af19283156107be578893611d3b575b50829055541115611c21578480f35b805460ff191660031790556040516338d18b5f60e11b815260048101849052908490829060249082905afa928315611d3057807f99e22402a0724556366c1d60e161aae013b4360732a8671712931ec53efefffe6040602494899789918a91611d13575b50825191825288820152a26040519485938492633550dc6760e01b845260048401527f0000000000000000000000000000000000000000000000000000000000000000165af18015611d0857611cdf575b80808085938480f35b813d8311611d01575b611cf281836137f7565b8101031261069a573880611cd6565b503d611ce8565b6040513d85823e3d90fd5b9050611d2991503d808b833e610f7d81836137f7565b5038611c85565b6040513d86823e3d90fd5b975091508787813d8111611d66575b611d5481836137f7565b8101031261069a578896519138611c12565b503d611d4a565b60405162461bcd60e51b8152600481018690526014602482015273125b9d9bda58d9481b9bdd081d995c9a599a595960621b6044820152606490fd5b634e487b7160e01b87526021600452602487fd5b50600154811115611b47565b503461024f57602036600319011261024f5760209060043580151580611e11575b611df390613aac565b8152600382526002604060018060a01b039220015416604051908152f35b50600154811115611dea565b503461024f578060031936011261024f57602060ff600254166040519015158152f35b503461024f578060031936011261024f57600154611e5d81613ba4565b9060015b81811115611e775760405180610bac858261394a565b6000198101818111611e975790806116b1611e929386613bd6565b611e61565b634e487b7160e01b85526011600452602485fd5b503461024f576020806003193601126112f25760043590811515806120d0575b611ed490613aac565b611ee360ff60025416156139d4565b8183526003815260408320600b810160ff8154166009811015610f9c576005036120965760028201546001600160a01b03908116330361205a57908386926084600f611f62876301e13380611f5b611f3f600c84015442613b97565b612710611f55600a600387015496015486613a47565b04613a47565b0490613a15565b960154604051958693849263b18ce24f60e01b84528b600485015233602485015289604485015260648401527f0000000000000000000000000000000000000000000000000000000000000000165af191821561204f578692611ffe575b50805460ff1916600617905560408051928352928201527f18969ea6899de8b19cc4707e6ceb1d8439082db6291091d6ddaee2649eb3ab919190a280f35b9291508383813d8311612048575b61201681836137f7565b8101031261069a57915190917f18969ea6899de8b19cc4707e6ceb1d8439082db6291091d6ddaee2649eb3ab91611fc0565b503d61200c565b6040513d88823e3d90fd5b60405162461bcd60e51b81526004810185905260146024820152734f6e6c792062757965722063616e20726570617960601b6044820152606490fd5b60405162461bcd60e51b8152600481018490526012602482015271125b9d9bda58d9481b9bdd08199d5b99195960721b6044820152606490fd5b50600154821115611ecb565b503461024f578060031936011261024f5760405160608101908082106001600160401b038311176117da57610bac91604052602681527f5969656c6458436f72652076342e312e30202d20537461636b2053616665204d60208201526537b23ab630b960d11b604082015260405191829160208352602083019061375f565b503461024f57602036600319011261024f5760043581526003602052604090208054600160a01b600190039182600182015416926002820154169260038201549360405194858060048601906121b0916138b4565b036121bb90876137f7565b60405195866121cd81600588016138b4565b036121d890886137f7565b604051806121e981600689016138b4565b036121f490826137f7565b604051806122058160078a016138b4565b0361221090826137f7565b60405191826122228160088b016138b4565b0361222d90846137f7565b600988015499600a89015494600b8a015460ff1696600c8b015498600d8c015460ff169a600e8d01549c600f01549d60405180608052526080516020015260805160400152608051606001526102008060805160800152608051016122919161375f565b6080518082039060a001526122a59161375f565b6080518082039060c001526122b99161375f565b6080518082039060e001526122cd9161375f565b6080518082039061010001526122e29161375f565b96608051610120015260805161014001526080516101600161230391613719565b608051610180015215156080516101a001526080516101c001526080516101e0015260805180910390f35b503461024f578060031936011261024f576040517f00000000000000000000000000000000000000000000000000000000000000006001600160a01b03168152602090f35b503461024f57604036600319011261024f576004356024356001600160401b0381116110d2576123a7903690600401613833565b82546001600160a01b03906123bf908216331461399b565b82151580612585575b6123d190613aac565b82845260036020526040842090600b82019182549060ff821660098110159081611a41578015918215612577575b8215612552575b5050156124fd5786936008600f9360ff191617905501908154612466575b5050506124607f30f1a1ed9ed0adbcb85235780494613b9e2542cc72f0c5ede21be804cd6470d49160405191829160208352602083019061375f565b0390a280f35b7f000000000000000000000000000000000000000000000000000000000000000016803b156110d257828091602460405180948193634f74c3d960e11b83528a60048401525af18015611d08576124e4575b5055827f30f1a1ed9ed0adbcb85235780494613b9e2542cc72f0c5ede21be804cd6470d4612460612424565b916124f1819492936137e4565b6110d2579190386124b8565b60405162461bcd60e51b815260206004820152602760248201527f43616e6e6f742072656a65637420696e766f69636520696e2063757272656e746044820152662073746174757360c81b6064820152608490fd5b909150612563576002143880612406565b634e487b7160e01b88526021600452602488fd5b5060018114915060006123ff565b506001548311156123c8565b503461024f5761012036600319011261024f576125ac613784565b6044356001600160401b0381116110d2576125cb903690600401613833565b6064356001600160401b0381116110d6576125ea903690600401613833565b6084356001600160401b038111611b2a57612609903690600401613833565b60a4356001600160401b0381116115a757612628903690600401613833565b60c4356001600160401b03811161303857612647903690600401613833565b91610104356001600160401b03811161303457612668903690600401613833565b9361267860ff60025416156139d4565b60243515612fef5762093a804201804211612fdb5760e4351115612f8357855115612f4957825115612f0b57835115612ed057845115612e92576126bd600154613a38565b96876001556123286024358160243502048103612e7e57888a52600360205260408a2091898355336bffffffffffffffffffffffff60a01b600185015416176001840155600283019060018060a01b03166bffffffffffffffffffffffff60a01b825416179055602435600383015587516001600160401b038111612b8157612749600484015461387a565b601f8111612e39575b50806020601f8211600114612dce578c91612dc3575b508160011b916000199060031b1c19161760048301555b82516001600160401b038111612b815761279c600584015461387a565b601f8111612d7e575b50806020601f8211600114612d14578c91612d09575b508160011b916000199060031b1c19161760058301555b83516001600160401b038111612b81576127ef600684015461387a565b601f8111612cc4575b50806020601f8211600114612c5a578c91612c4f575b508160011b916000199060031b1c19161760068301555b84516001600160401b038111612b8157612842600784015461387a565b601f8111612c0a575b50806020601f8211600114612ba0578c91612b95575b508160011b916000199060031b1c19161760078301555b85516001600160401b038111612b8157612895600884015461387a565b601f8111612b3c575b50806020601f8211600114612ad2578c91612ac7575b508160011b916000199060031b1c19161760088301555b60e435600983015589600a83015560ff19600b83015416600b83015542600c830155600d820160ff198154169055612710816024350204600e83015589600f830155338a52600460205260408a20805468010000000000000000811015612ab35760018101825561293b9161379a565b81549060031b908b821b91600019901b1916179055604051906024358252602435026127109004602082015288339160407fc09ca85b7f8d95a2b1aa708a813e27efbc15cf5c64f2631952d0b0ee34e409e091a3600b01805460ff191660011790556040516396f8a47d60e01b81526004810188905261010060248201529586956129cb9061010488019061375f565b8681036003190160448801526129e09161375f565b60243560648701528581036003190160848701526129fd9161375f565b8481036003190160a4860152612a129161375f565b8381036003190160c4850152612a279161375f565b8281036003190160e4840152612a3c9161375f565b7f00000000000000000000000000000000000000000000000000000000000000006001600160a01b03169183910381865a94602095f18015611d0857612a88575b602082604051908152f35b602090813d8311612aac575b612a9e81836137f7565b810103126112f25781612a7d565b503d612a94565b634e487b7160e01b8c52604160045260248cfd5b9050870151386128b4565b9150600884018c5260208c208c925b601f1983168410612b24576001935082601f19811610612b0b575b5050811b0160088301556128cb565b89015160001960f88460031b161c191690553880612afc565b89810151825560209384019360019092019101612ae1565b600884018c5260208c20601f830160051c810160208410612b7a575b601f830160051c82018110612b6e57505061289e565b60008155600101612b58565b5080612b58565b634e487b7160e01b8b52604160045260248bfd5b905086015138612861565b9150600784018c5260208c208c925b601f1983168410612bf2576001935082601f19811610612bd9575b5050811b016007830155612878565b88015160001960f88460031b161c191690553880612bca565b88810151825560209384019360019092019101612baf565b600784018c5260208c20601f830160051c810160208410612c48575b601f830160051c82018110612c3c57505061284b565b60008155600101612c26565b5080612c26565b90508501513861280e565b9150600684018c5260208c208c925b601f1983168410612cac576001935082601f19811610612c93575b5050811b016006830155612825565b87015160001960f88460031b161c191690553880612c84565b87810151825560209384019360019092019101612c69565b600684018c5260208c20601f830160051c810160208410612d02575b601f830160051c82018110612cf65750506127f8565b60008155600101612ce0565b5080612ce0565b9050840151386127bb565b9150600584018c5260208c208c925b601f1983168410612d66576001935082601f19811610612d4d575b5050811b0160058301556127d2565b86015160001960f88460031b161c191690553880612d3e565b86810151825560209384019360019092019101612d23565b600584018c5260208c20601f830160051c810160208410612dbc575b601f830160051c82018110612db05750506127a5565b60008155600101612d9a565b5080612d9a565b905089015138612768565b9150600484018c5260208c208c925b8b601f1984168510612e2257506001935082601f19811610612e09575b5050811b01600483015561277f565b8b015160001960f88460031b161c191690553880612dfa565b810151825560209384019360019092019101612ddd565b600484018c5260208c20601f830160051c810160208410612e77575b601f830160051c82018110612e6b575050612752565b60008155600101612e55565b5080612e55565b634e487b7160e01b8a52601160045260248afd5b60405162461bcd60e51b8152602060048201526016602482015275111bd8dd5b595b9d081a185cda081c995c5d5a5c995960521b6044820152606490fd5b60405162461bcd60e51b8152602060048201526013602482015272109d5e595c881b985b59481c995c5d5a5c9959606a1b6044820152606490fd5b60405162461bcd60e51b8152602060048201526016602482015275115e1c1bdc9d195c881b985b59481c995c5d5a5c995960521b6044820152606490fd5b60405162461bcd60e51b815260206004820152601260248201527110dbdb5b5bd91a5d1e481c995c5d5a5c995960721b6044820152606490fd5b60405162461bcd60e51b815260206004820152602a60248201527f4475652064617465206d757374206265206174206c656173742037206461797360448201526920696e2066757475726560b01b6064820152608490fd5b634e487b7160e01b89526011600452602489fd5b60405162461bcd60e51b815260206004820152601760248201527f416d6f756e74206d75737420626520706f7369746976650000000000000000006044820152606490fd5b8780fd5b8680fd5b503461024f578060031936011261024f5761306160018060a01b03825416331461399b565b60ff196002541660025580f35b503461024f578060031936011261024f5780546001600160a01b039190613098908316331461399b565b817f00000000000000000000000000000000000000000000000000000000000000001691823b156112f2576040519282846024818363c626669360e01b958683523060048401525af18015611d0857613236575b829350817f000000000000000000000000000000000000000000000000000000000000000016803b15613219578380916024604051809481938783523060048401525af1908115611d3057849161321e575b5050817f00000000000000000000000000000000000000000000000000000000000000001690813b1561321957839160248392604051948593849283523060048401525af1908115611d08578391613205575b50507f000000000000000000000000000000000000000000000000000000000000000016803b15613202578180916024604051809481936316391c0160e21b83523060048401525af180156131f7576131e75750f35b6131f0906137e4565b61024f5780f35b6040513d84823e3d90fd5b50fd5b61320e906137e4565b613202578138613191565b505050fd5b613227906137e4565b61323257823861313e565b5050fd5b919092613242906137e4565b9082906130ec565b503461024f57604036600319011261024f57613264613784565b602060243580151580613319575b61327b90613aac565b6040516338a7b16760e01b81526001600160a01b039384166004820152602481019190915291829060449082907f0000000000000000000000000000000000000000000000000000000000000000165afa9081156131f75782916132e457602082604051908152f35b90506020813d8211613311575b816132fe602093836137f7565b810103126112f257602091505138612a7d565b3d91506132f1565b50600154811115613272565b503461024f578060031936011261024f576040517f00000000000000000000000000000000000000000000000000000000000000006001600160a01b03168152602090f35b503461024f57602036600319011261024f5760043580151580613519575b61339190613aac565b81526003602052604081206040516133a8816137c8565b8154815260018201546001600160a01b0390811660208301526002830154811660408084019182526003850154606085015251926133ed84610c5581600489016138b4565b608081019384526040516134088161090e8160058a016138b4565b60a08201526040516134218161090e8160068a016138b4565b60c0820152604051946134428661343b81600785016138b4565b03876137f7565b60e08201958652604051966134658861345e81600886016138b4565b03896137f7565b61010083019788526009820154610120840152600a82015461014084015260ff600b83015416906009821015610a0c5750916101e0600f61350b9593610bac989795610160850152600c81015461018085015260ff600d8201541615156101a0850152600e8101546101c085015201549101525116935194519151916134fd604051968796875260806020880152608087019061375f565b90858203604087015261375f565b90838203606085015261375f565b50600154811115613388565b503461024f57604036600319011261024f5761353f613784565b6001600160a01b031681526004602052604081208054602435929083101561024f57602061356d848461379a565b90546040519160031b1c8152f35b503461024f57602036600319011261024f5761090e6135c460046040610bac948235801515806135d8575b6135af90613aac565b815260036020522001604051928380926138b4565b60405191829160208352602083019061375f565b506001548111156135a6565b503461024f57602036600319011261024f5760ff600b60406020936004358015158061362b575b61361490613aac565b81526003855220015416610a0a6040518092613719565b5060015481111561360b565b503461024f578060031936011261024f576040517f00000000000000000000000000000000000000000000000000000000000000006001600160a01b03168152602090f35b503461024f57602036600319011261024f5760036040602092600435801515806136ba575b6136aa90613aac565b8152828452200154604051908152f35b506001548111156136a1565b503461024f57602036600319011261024f576020906004358015158061370d575b6136f090613aac565b81526003825260016040818060a01b039220015416604051908152f35b506001548111156136e7565b9060098210156137265752565b634e487b7160e01b600052602160045260246000fd5b60005b83811061374f5750506000910152565b818101518382015260200161373f565b906020916137788151809281855285808601910161373c565b601f01601f1916010190565b600435906001600160a01b038216820361069a57565b80548210156137b25760005260206000200190600090565b634e487b7160e01b600052603260045260246000fd5b61020081019081106001600160401b038211176117da57604052565b6001600160401b0381116117da57604052565b90601f801991011681019081106001600160401b038211176117da57604052565b6001600160401b0381116117da57601f01601f191660200190565b81601f8201121561069a5780359061384a82613818565b9261385860405194856137f7565b8284526020838301011161069a57816000926020809301838601378301015290565b90600182811c921680156138aa575b602083101461389457565b634e487b7160e01b600052602260045260246000fd5b91607f1691613889565b90600092918054916138c58361387a565b91828252600193848116908160001461392757506001146138e7575b50505050565b90919394506000526020928360002092846000945b8386106139135750505050010190388080806138e1565b8054858701830152940193859082016138fc565b9294505050602093945060ff191683830152151560051b010190388080806138e1565b6020908160408183019282815285518094520193019160005b828110613971575050505090565b835185529381019392810192600101613963565b604090600319011261069a576004359060243590565b156139a257565b60405162461bcd60e51b815260206004820152600a60248201526927b7363c9037bbb732b960b11b6044820152606490fd5b156139db57565b60405162461bcd60e51b8152602060048201526012602482015271141c9bdd1bd8dbdb081a5cc81c185d5cd95960721b6044820152606490fd5b91908201809211613a2257565b634e487b7160e01b600052601160045260246000fd5b6000198114613a225760010190565b81810292918115918404141715613a2257565b5190811515820361069a57565b81601f8201121561069a578051613a7d81613818565b92613a8b60405194856137f7565b8184526020828401011161069a57613aa9916020808501910161373c565b90565b15613ab357565b60405162461bcd60e51b815260206004820152600f60248201526e496e76616c696420696e766f69636560881b6044820152606490fd5b6001600160401b0381116117da5760051b60200190565b909160608284031261069a57815192602080840151936040810151906001600160401b03821161069a57019180601f8401121561069a578251613b4381613aea565b93613b5160405195866137f7565b818552838086019260051b82010192831161069a578301905b828210613b78575050505090565b81516001600160a01b038116810361069a578152908301908301613b6a565b91908203918211613a2257565b90613bae82613aea565b613bbb60405191826137f7565b8281528092613bcc601f1991613aea565b0190602036910137565b80518210156137b25760209160051b01019056fea2646970667358221220f425fc03cfb9973cce22228c5c0c6be59aa9dd4ab4793c5c1ea3279ccd205d8364736f6c63430008140033",
  "linkReferences": {},
  "deployedLinkReferences": {}
}