{
  "_format": "hh-sol-artifact-1",
  "contractName": "YieldXCore",
  "sourceName": "contracts/YieldXProtocol.sol",
  "abi": [
    {
      "inputs": [
        {
          "internalType": "address",
          "name": "_invoiceNFT",
          "type": "address"
        },
        {
          "internalType": "address",
          "name": "_usdcToken",
          "type": "address"
        },
        {
          "internalType": "address",
          "name": "_priceManager",
          "type": "address"
        },
        {
          "internalType": "address",
          "name": "_riskCalculator",
          "type": "address"
        },
        {
          "internalType": "address",
          "name": "_vrfCoordinator",
          "type": "address"
        },
        {
          "internalType": "bytes32",
          "name": "_keyHash",
          "type": "bytes32"
        },
        {
          "internalType": "uint256",
          "name": "_vrfSubscriptionId",
          "type": "uint256"
        },
        {
          "internalType": "address",
          "name": "_functionsRouter",
          "type": "address"
        },
        {
          "internalType": "uint64",
          "name": "_functionsSubscriptionId",
          "type": "uint64"
        }
      ],
      "stateMutability": "nonpayable",
      "type": "constructor"
    },
    {
      "anonymous": false,
      "inputs": [
        {
          "indexed": true,
          "internalType": "address",
          "name": "member",
          "type": "address"
        }
      ],
      "name": "CommitteeMemberAdded",
      "type": "event"
    },
    {
      "anonymous": false,
      "inputs": [
        {
          "indexed": true,
          "internalType": "address",
          "name": "member",
          "type": "address"
        }
      ],
      "name": "CommitteeMemberRemoved",
      "type": "event"
    },
    {
      "anonymous": false,
      "inputs": [
        {
          "indexed": true,
          "internalType": "uint256",
          "name": "invoiceId",
          "type": "uint256"
        },
        {
          "indexed": false,
          "internalType": "uint256",
          "name": "aprBasisPoints",
          "type": "uint256"
        }
      ],
      "name": "InvoiceApproved",
      "type": "event"
    },
    {
      "anonymous": false,
      "inputs": [
        {
          "indexed": true,
          "internalType": "uint256",
          "name": "invoiceId",
          "type": "uint256"
        },
        {
          "indexed": false,
          "internalType": "uint256",
          "name": "fundingAmount",
          "type": "uint256"
        }
      ],
      "name": "InvoiceFunded",
      "type": "event"
    },
    {
      "anonymous": false,
      "inputs": [
        {
          "indexed": true,
          "internalType": "uint256",
          "name": "invoiceId",
          "type": "uint256"
        },
        {
          "indexed": false,
          "internalType": "uint256",
          "name": "repaymentAmount",
          "type": "uint256"
        }
      ],
      "name": "InvoiceRepaid",
      "type": "event"
    },
    {
      "anonymous": false,
      "inputs": [
        {
          "indexed": true,
          "internalType": "uint256",
          "name": "invoiceId",
          "type": "uint256"
        },
        {
          "indexed": true,
          "internalType": "address",
          "name": "supplier",
          "type": "address"
        },
        {
          "indexed": false,
          "internalType": "uint256",
          "name": "amount",
          "type": "uint256"
        }
      ],
      "name": "InvoiceSubmitted",
      "type": "event"
    },
    {
      "anonymous": false,
      "inputs": [
        {
          "indexed": true,
          "internalType": "uint256",
          "name": "invoiceId",
          "type": "uint256"
        },
        {
          "indexed": false,
          "internalType": "uint256",
          "name": "randomness",
          "type": "uint256"
        }
      ],
      "name": "VRFFulfilled",
      "type": "event"
    },
    {
      "anonymous": false,
      "inputs": [
        {
          "indexed": true,
          "internalType": "uint256",
          "name": "invoiceId",
          "type": "uint256"
        },
        {
          "indexed": false,
          "internalType": "uint256",
          "name": "requestId",
          "type": "uint256"
        }
      ],
      "name": "VRFRequested",
      "type": "event"
    },
    {
      "inputs": [
        {
          "internalType": "address",
          "name": "member",
          "type": "address"
        }
      ],
      "name": "addCommitteeMember",
      "outputs": [],
      "stateMutability": "nonpayable",
      "type": "function"
    },
    {
      "inputs": [
        {
          "internalType": "uint256",
          "name": "invoiceId",
          "type": "uint256"
        }
      ],
      "name": "approveInvoice",
      "outputs": [],
      "stateMutability": "nonpayable",
      "type": "function"
    },
    {
      "inputs": [
        {
          "internalType": "address",
          "name": "",
          "type": "address"
        }
      ],
      "name": "committeeMembers",
      "outputs": [
        {
          "internalType": "bool",
          "name": "",
          "type": "bool"
        }
      ],
      "stateMutability": "view",
      "type": "function"
    },
    {
      "inputs": [
        {
          "internalType": "uint256",
          "name": "amount",
          "type": "uint256"
        }
      ],
      "name": "depositUSDC",
      "outputs": [],
      "stateMutability": "nonpayable",
      "type": "function"
    },
    {
      "inputs": [
        {
          "internalType": "uint256",
          "name": "requestId",
          "type": "uint256"
        },
        {
          "internalType": "uint256[]",
          "name": "randomWords",
          "type": "uint256[]"
        }
      ],
      "name": "fulfillRandomWords",
      "outputs": [],
      "stateMutability": "nonpayable",
      "type": "function"
    },
    {
      "inputs": [],
      "name": "functionsRouter",
      "outputs": [
        {
          "internalType": "address",
          "name": "",
          "type": "address"
        }
      ],
      "stateMutability": "view",
      "type": "function"
    },
    {
      "inputs": [],
      "name": "functionsSubscriptionId",
      "outputs": [
        {
          "internalType": "uint64",
          "name": "",
          "type": "uint64"
        }
      ],
      "stateMutability": "view",
      "type": "function"
    },
    {
      "inputs": [
        {
          "internalType": "uint256",
          "name": "invoiceId",
          "type": "uint256"
        }
      ],
      "name": "fundInvoice",
      "outputs": [],
      "stateMutability": "nonpayable",
      "type": "function"
    },
    {
      "inputs": [],
      "name": "getAllInvoices",
      "outputs": [
        {
          "internalType": "uint256[]",
          "name": "",
          "type": "uint256[]"
        }
      ],
      "stateMutability": "view",
      "type": "function"
    },
    {
      "inputs": [],
      "name": "getCommitteeMembers",
      "outputs": [
        {
          "internalType": "address[]",
          "name": "",
          "type": "address[]"
        }
      ],
      "stateMutability": "view",
      "type": "function"
    },
    {
      "inputs": [],
      "name": "getCommitteeSize",
      "outputs": [
        {
          "internalType": "uint256",
          "name": "",
          "type": "uint256"
        }
      ],
      "stateMutability": "view",
      "type": "function"
    },
    {
      "inputs": [
        {
          "internalType": "uint256",
          "name": "invoiceId",
          "type": "uint256"
        }
      ],
      "name": "getInvoice",
      "outputs": [
        {
          "internalType": "address",
          "name": "supplier",
          "type": "address"
        },
        {
          "internalType": "address",
          "name": "buyer",
          "type": "address"
        },
        {
          "internalType": "uint256",
          "name": "amount",
          "type": "uint256"
        },
        {
          "internalType": "string",
          "name": "commodity",
          "type": "string"
        },
        {
          "internalType": "string",
          "name": "supplierCountry",
          "type": "string"
        },
        {
          "internalType": "string",
          "name": "buyerCountry",
          "type": "string"
        },
        {
          "internalType": "uint256",
          "name": "dueDate",
          "type": "uint256"
        },
        {
          "internalType": "uint256",
          "name": "aprBasisPoints",
          "type": "uint256"
        },
        {
          "internalType": "enum YieldXCore.InvoiceStatus",
          "name": "status",
          "type": "uint8"
        },
        {
          "internalType": "bool",
          "name": "vrfFulfilled",
          "type": "bool"
        }
      ],
      "stateMutability": "view",
      "type": "function"
    },
    {
      "inputs": [
        {
          "internalType": "uint256",
          "name": "invoiceId",
          "type": "uint256"
        }
      ],
      "name": "getInvoiceDetails",
      "outputs": [
        {
          "internalType": "uint256",
          "name": "id",
          "type": "uint256"
        },
        {
          "internalType": "address",
          "name": "supplier",
          "type": "address"
        },
        {
          "internalType": "address",
          "name": "buyer",
          "type": "address"
        },
        {
          "internalType": "uint256",
          "name": "amount",
          "type": "uint256"
        },
        {
          "internalType": "string",
          "name": "commodity",
          "type": "string"
        },
        {
          "internalType": "string",
          "name": "supplierCountry",
          "type": "string"
        },
        {
          "internalType": "string",
          "name": "buyerCountry",
          "type": "string"
        },
        {
          "internalType": "string",
          "name": "exporterName",
          "type": "string"
        },
        {
          "internalType": "string",
          "name": "buyerName",
          "type": "string"
        },
        {
          "internalType": "uint256",
          "name": "dueDate",
          "type": "uint256"
        },
        {
          "internalType": "uint256",
          "name": "aprBasisPoints",
          "type": "uint256"
        },
        {
          "internalType": "uint256",
          "name": "finalFundingAmount",
          "type": "uint256"
        },
        {
          "internalType": "enum YieldXCore.InvoiceStatus",
          "name": "status",
          "type": "uint8"
        },
        {
          "internalType": "uint256",
          "name": "createdAt",
          "type": "uint256"
        },
        {
          "internalType": "bool",
          "name": "vrfFulfilled",
          "type": "bool"
        },
        {
          "internalType": "uint256",
          "name": "randomness",
          "type": "uint256"
        }
      ],
      "stateMutability": "view",
      "type": "function"
    },
    {
      "inputs": [
        {
          "internalType": "enum YieldXCore.InvoiceStatus",
          "name": "status",
          "type": "uint8"
        }
      ],
      "name": "getInvoicesByStatus",
      "outputs": [
        {
          "internalType": "uint256[]",
          "name": "",
          "type": "uint256[]"
        }
      ],
      "stateMutability": "view",
      "type": "function"
    },
    {
      "inputs": [],
      "name": "getProtocolStats",
      "outputs": [
        {
          "internalType": "uint256",
          "name": "totalInvoices",
          "type": "uint256"
        },
        {
          "internalType": "uint256",
          "name": "totalCommitteeMembers",
          "type": "uint256"
        },
        {
          "internalType": "uint256",
          "name": "totalFundsRaised",
          "type": "uint256"
        },
        {
          "internalType": "uint256",
          "name": "pendingInvoices",
          "type": "uint256"
        },
        {
          "internalType": "uint256",
          "name": "approvedInvoices",
          "type": "uint256"
        },
        {
          "internalType": "uint256",
          "name": "fundedInvoices",
          "type": "uint256"
        }
      ],
      "stateMutability": "view",
      "type": "function"
    },
    {
      "inputs": [
        {
          "internalType": "address",
          "name": "supplier",
          "type": "address"
        }
      ],
      "name": "getSupplierInvoices",
      "outputs": [
        {
          "internalType": "uint256[]",
          "name": "",
          "type": "uint256[]"
        }
      ],
      "stateMutability": "view",
      "type": "function"
    },
    {
      "inputs": [],
      "name": "initializeNFTProtocol",
      "outputs": [],
      "stateMutability": "nonpayable",
      "type": "function"
    },
    {
      "inputs": [],
      "name": "invoiceCounter",
      "outputs": [
        {
          "internalType": "uint256",
          "name": "",
          "type": "uint256"
        }
      ],
      "stateMutability": "view",
      "type": "function"
    },
    {
      "inputs": [],
      "name": "invoiceNFT",
      "outputs": [
        {
          "internalType": "contract YieldXInvoiceNFT",
          "name": "",
          "type": "address"
        }
      ],
      "stateMutability": "view",
      "type": "function"
    },
    {
      "inputs": [
        {
          "internalType": "uint256",
          "name": "",
          "type": "uint256"
        }
      ],
      "name": "invoices",
      "outputs": [
        {
          "internalType": "uint256",
          "name": "id",
          "type": "uint256"
        },
        {
          "internalType": "address",
          "name": "supplier",
          "type": "address"
        },
        {
          "internalType": "address",
          "name": "buyer",
          "type": "address"
        },
        {
          "internalType": "uint256",
          "name": "amount",
          "type": "uint256"
        },
        {
          "internalType": "string",
          "name": "commodity",
          "type": "string"
        },
        {
          "internalType": "string",
          "name": "supplierCountry",
          "type": "string"
        },
        {
          "internalType": "string",
          "name": "buyerCountry",
          "type": "string"
        },
        {
          "internalType": "string",
          "name": "exporterName",
          "type": "string"
        },
        {
          "internalType": "string",
          "name": "buyerName",
          "type": "string"
        },
        {
          "internalType": "uint256",
          "name": "dueDate",
          "type": "uint256"
        },
        {
          "internalType": "uint256",
          "name": "aprBasisPoints",
          "type": "uint256"
        },
        {
          "internalType": "uint256",
          "name": "finalFundingAmount",
          "type": "uint256"
        },
        {
          "internalType": "enum YieldXCore.InvoiceStatus",
          "name": "status",
          "type": "uint8"
        },
        {
          "internalType": "uint256",
          "name": "createdAt",
          "type": "uint256"
        },
        {
          "internalType": "uint256",
          "name": "vrfRequestId",
          "type": "uint256"
        },
        {
          "internalType": "uint256",
          "name": "randomness",
          "type": "uint256"
        },
        {
          "internalType": "bool",
          "name": "vrfFulfilled",
          "type": "bool"
        }
      ],
      "stateMutability": "view",
      "type": "function"
    },
    {
      "inputs": [
        {
          "internalType": "address",
          "name": "member",
          "type": "address"
        }
      ],
      "name": "isCommitteeMember",
      "outputs": [
        {
          "internalType": "bool",
          "name": "",
          "type": "bool"
        }
      ],
      "stateMutability": "view",
      "type": "function"
    },
    {
      "inputs": [],
      "name": "keyHash",
      "outputs": [
        {
          "internalType": "bytes32",
          "name": "",
          "type": "bytes32"
        }
      ],
      "stateMutability": "view",
      "type": "function"
    },
    {
      "inputs": [],
      "name": "owner",
      "outputs": [
        {
          "internalType": "address",
          "name": "",
          "type": "address"
        }
      ],
      "stateMutability": "view",
      "type": "function"
    },
    {
      "inputs": [],
      "name": "pause",
      "outputs": [],
      "stateMutability": "nonpayable",
      "type": "function"
    },
    {
      "inputs": [],
      "name": "priceManager",
      "outputs": [
        {
          "internalType": "contract YieldXPriceManager",
          "name": "",
          "type": "address"
        }
      ],
      "stateMutability": "view",
      "type": "function"
    },
    {
      "inputs": [
        {
          "internalType": "address",
          "name": "member",
          "type": "address"
        }
      ],
      "name": "removeCommitteeMember",
      "outputs": [],
      "stateMutability": "nonpayable",
      "type": "function"
    },
    {
      "inputs": [
        {
          "internalType": "uint256",
          "name": "invoiceId",
          "type": "uint256"
        }
      ],
      "name": "repayInvoice",
      "outputs": [],
      "stateMutability": "nonpayable",
      "type": "function"
    },
    {
      "inputs": [],
      "name": "riskCalculator",
      "outputs": [
        {
          "internalType": "contract YieldXRiskCalculator",
          "name": "",
          "type": "address"
        }
      ],
      "stateMutability": "view",
      "type": "function"
    },
    {
      "inputs": [
        {
          "internalType": "address",
          "name": "buyer",
          "type": "address"
        },
        {
          "internalType": "uint256",
          "name": "amount",
          "type": "uint256"
        },
        {
          "internalType": "string",
          "name": "commodity",
          "type": "string"
        },
        {
          "internalType": "string",
          "name": "supplierCountry",
          "type": "string"
        },
        {
          "internalType": "string",
          "name": "buyerCountry",
          "type": "string"
        },
        {
          "internalType": "string",
          "name": "exporterName",
          "type": "string"
        },
        {
          "internalType": "string",
          "name": "buyerName",
          "type": "string"
        },
        {
          "internalType": "uint256",
          "name": "dueDate",
          "type": "uint256"
        }
      ],
      "name": "submitInvoice",
      "outputs": [
        {
          "internalType": "uint256",
          "name": "",
          "type": "uint256"
        }
      ],
      "stateMutability": "nonpayable",
      "type": "function"
    },
    {
      "inputs": [
        {
          "internalType": "address",
          "name": "",
          "type": "address"
        },
        {
          "internalType": "uint256",
          "name": "",
          "type": "uint256"
        }
      ],
      "name": "supplierInvoices",
      "outputs": [
        {
          "internalType": "uint256",
          "name": "",
          "type": "uint256"
        }
      ],
      "stateMutability": "view",
      "type": "function"
    },
    {
      "inputs": [],
      "name": "unpause",
      "outputs": [],
      "stateMutability": "nonpayable",
      "type": "function"
    },
    {
      "inputs": [
        {
          "internalType": "address",
          "name": "_priceManager",
          "type": "address"
        }
      ],
      "name": "updatePriceManager",
      "outputs": [],
      "stateMutability": "nonpayable",
      "type": "function"
    },
    {
      "inputs": [
        {
          "internalType": "address",
          "name": "_riskCalculator",
          "type": "address"
        }
      ],
      "name": "updateRiskCalculator",
      "outputs": [],
      "stateMutability": "nonpayable",
      "type": "function"
    },
    {
      "inputs": [],
      "name": "usdcToken",
      "outputs": [
        {
          "internalType": "contract MockUSDC",
          "name": "",
          "type": "address"
        }
      ],
      "stateMutability": "view",
      "type": "function"
    },
    {
      "inputs": [],
      "name": "version",
      "outputs": [
        {
          "internalType": "string",
          "name": "",
          "type": "string"
        }
      ],
      "stateMutability": "pure",
      "type": "function"
    },
    {
      "inputs": [],
      "name": "vrfCoordinator",
      "outputs": [
        {
          "internalType": "contract VRFCoordinatorV2Interface",
          "name": "",
          "type": "address"
        }
      ],
      "stateMutability": "view",
      "type": "function"
    },
    {
      "inputs": [
        {
          "internalType": "uint256",
          "name": "",
          "type": "uint256"
        }
      ],
      "name": "vrfRequestToInvoice",
      "outputs": [
        {
          "internalType": "uint256",
          "name": "",
          "type": "uint256"
        }
      ],
      "stateMutability": "view",
      "type": "function"
    },
    {
      "inputs": [],
      "name": "vrfSubscriptionId",
      "outputs": [
        {
          "internalType": "uint256",
          "name": "",
          "type": "uint256"
        }
      ],
      "stateMutability": "view",
      "type": "function"
    },
    {
      "inputs": [
        {
          "internalType": "uint256",
          "name": "amount",
          "type": "uint256"
        }
      ],
      "name": "withdrawUSDC",
      "outputs": [],
      "stateMutability": "nonpayable",
      "type": "function"
    }
  ],
  "bytecode": "0x60803462000149576001600160401b0390601f62002f9d38819003918201601f1916830191848311848410176200014e57808492610120946040528339810103126200014957620000508162000164565b916200005f6020830162000164565b926200006e6040840162000164565b906200007d6060850162000164565b946200008c6080860162000164565b9060a08601519160c087015193610100620000aa60e08a0162000164565b9801519687168703620001495760018060a01b0398898097818096819560018060a01b03199e8f9116906000541617600055168c6001541617600155168a6002541617600255168860035416176003551686600454161760045560055560065560075491600160a01b600160e01b039060a01b1692169063ffffffff60e01b16171760075533906008541617600855604051612e2390816200017a8239f35b600080fd5b634e487b7160e01b600052604160045260246000fd5b51906001600160a01b0382168203620001495756fe61012080604052600436101561001457600080fd5b600090813560e01c908163113430d314612a245750806311eac855146129fb5780631892b7d5146129dd578063285c8eac1461298757806338ba4614146126b85780633a23cc0a146124b15780633d77e0e714611acc5780633f4ba83a14610bcb5780634bb6f06d14611aa55780634e6d1405146118b45780634ebd36221461188b57806350ad5edf146118035780635270e29f146117b857806353f59d3b1461044157806354fd4d5014611718578063559034df14611530578063570bdad6146114c557806361728f39146114a757806364d5fa471461114d578063705f876c1461112357806373114f3c1461104d578063771aceef14610dba5780637cdef89b14610d6f5780637fad0d4814610bf45780638456cb5914610bcb5780638da5cb5b14610ba2578063909a708a146108e5578063a3e56fa8146108bc578063a57b381c1461089e578063b19782ef1461081b578063b2a275f914610755578063b32413b7146105b2578063c7e1ffe314610589578063d58f05da14610560578063db81f99b14610480578063e636d84b14610441578063e7f1f953146102d6578063ed647d21146102b85763f688bcfb146101cf57600080fd5b346102b55760203660031901126102b5576008546001600160a01b03906101f99082163314612cde565b6001546040516323b872dd60e01b81523360048083019190915230602483015235604482015291602091839160649183918791165af19081156102aa57829161027c575b50156102465780f35b60405162461bcd60e51b815260206004820152600e60248201526d11195c1bdcda5d0819985a5b195960921b6044820152606490fd5b61029d915060203d81116102a3575b6102958183612ae2565b810190612d96565b3861023d565b503d61028b565b6040513d84823e3d90fd5b80fd5b50346102b557806003193601126102b5576020600654604051908152f35b50346102b55760208060031936011261043d576102f1612a4b565b6008546001600160a01b039061030a9082163314612cde565b811691821561040757828452600b815260ff6040852054166103c357828452600b815260408420600160ff19825416179055600c600a549152806040852055600160401b8110156103af57906103698260016103889401600a55612a61565b90919082549060031b9160018060a01b03809116831b921b1916179055565b7f0cb38e390fbd334396cf04e29d1374459cd2f2edeb56cf4d68004319aa1575c48280a280f35b634e487b7160e01b84526041600452602484fd5b6064906040519062461bcd60e51b82526004820152601a60248201527f416c7265616479206120636f6d6d6974746565206d656d6265720000000000006044820152fd5b6064906040519062461bcd60e51b82526004820152600f60248201526e496e76616c6964206164647265737360881b6044820152fd5b5080fd5b50346102b55760203660031901126102b55760209060ff906040906001600160a01b0361046c612a4b565b168152600b84522054166040519015158152f35b50346102b55760203660031901126102b5578060206104ee60018060a01b038060085416906104b0823314612cde565b60015460405163a9059cbb60e01b81526001600160a01b03909316600480850191909152356024840152919485939190921691839182906044820190565b03925af19081156102aa578291610542575b50156105095780f35b60405162461bcd60e51b815260206004820152601160248201527015da5d1a191c985dd85b0819985a5b1959607a1b6044820152606490fd5b61055a915060203d81116102a3576102958183612ae2565b38610500565b50346102b557806003193601126102b5576007546040516001600160a01b039091168152602090f35b50346102b557806003193601126102b5576002546040516001600160a01b039091168152602090f35b50346102b55760208060031936011261043d5760043590338352600b81526105e060ff604085205416612d32565b818352600d81526040832090600c8201805460ff811660068110156107415761070b5760019060ff191617905560018060a01b03600454168160055460a46001600160401b0360065416918860405195869485936305d3b1d360e41b85526004850152602484015260036044840152620186a06064840152600160848401525af19081156107005785916106ae575b5080600e7fc6f253de430148d7581a940518a73a6d98efc85ea9162887a3918443ba67c212940155808552600e8252836040862055604051908152a280f35b90508181813d83116106f9575b6106c58183612ae2565b810103126106f457517fc6f253de430148d7581a940518a73a6d98efc85ea9162887a3918443ba67c21261066f565b600080fd5b503d6106bb565b6040513d87823e3d90fd5b60405162461bcd60e51b815260048101849052600e60248201526d496e76616c69642073746174757360901b6044820152606490fd5b634e487b7160e01b87526021600452602487fd5b50346102b557806003193601126102b5576040518091600a549081835260208093018092600a83527fc65a7bb8d6351c1cf70c95a316cc6a92839c986682d98bc35f958f4883f9d2a890835b8181106107fe57505050846107b7910385612ae2565b60405193838594850191818652518092526040850193925b8281106107de57505050500390f35b83516001600160a01b0316855286955093810193928101926001016107cf565b82546001600160a01b0316845292860192600192830192016107a1565b50346102b55760208060031936011261043d576001600160a01b0361083e612a4b565b168252600f815260408220916040518092808554928381520194835280832092905b828210610887576108838561087781890382612ae2565b60405191829182612ca3565b0390f35b835486529485019460019384019390910190610860565b50346102b557806003193601126102b5576020600954604051908152f35b50346102b557806003193601126102b5576004546040516001600160a01b039091168152602090f35b50346102b55760203660031901126102b5576004358152600d6020526040812060ff60106040519261091684612ac6565b8054845260018101546001600160a01b03908116602086015260028201541660408086019190915260038201546060860152516109618161095a8160048601612c0d565b0382612ae2565b608085015260405161097a8161095a8160058601612c0d565b60a08501526040516109938161095a8160068601612c0d565b60c08501526040516109ac8161095a8160078601612c0d565b60e08501526040516109c58161095a8160088601612c0d565b6101008501526009810154610120850152600a810154610140850152600b810154610160850152610a0083600c830154166101808601612d26565b600d8101546101a0850152600e8101546101c0850152600f8101546101e0850152015416151561020082015280519060018060a01b0360208201511660018060a01b036040830151169360608301519460808401519560a085015160c086015160e087015190610100880151926101208901519a6101408a0151956101608b0151976101808c01519960068b1015610b8e57506101a08c01519a6102008d015115159c6101e001519d6040518061010052526101005160200152610100516040015261010051606001526101005160800161020090526101005161020001610ae791612b1a565b610100518082039060a00152610afc91612b1a565b610100518082039060c00152610b1191612b1a565b610100518082039060e00152610b2691612b1a565b61010051808203906101000152610b3c91612b1a565b966101005161012001526101005161014001526101005161016001526101005161018001610b6991612b5a565b610100516101a00152610100516101c00152610100516101e001526101005180910390f35b634e487b7160e01b81526021600452602490fd5b50346102b557806003193601126102b5576008546040516001600160a01b039091168152602090f35b50346102b557806003193601126102b557610bf160018060a01b03600854163314612cde565b80f35b50346102b557602090816003193601126102b557610c10612a4b565b6008546001600160a01b0393918491610c2c9083163314612cde565b1690818352600b815260ff60408420541615610d3257818352600b81526040808420805460ff19169055600c8252832054600a54600019959190868101908111610d1e578083918303610ced575b505050600a54948515610cd957600c9394950190610c9782612a61565b909182549160031b1b19169055600a5582845252600060408320557fc0cdacae5a1efb347198155da639c5dbd0a4231a08caed21a124471443a2f5628280a280f35b634e487b7160e01b85526031600452602485fd5b610cf690612a61565b90549060031b1c16610d0b8161036984612a61565b8552600c83526040852055388181610c7a565b634e487b7160e01b86526011600452602486fd5b6064906040519062461bcd60e51b8252600482015260166024820152752737ba10309031b7b6b6b4ba3a32b29036b2b6b132b960511b6044820152fd5b50346102b55760203660031901126102b557610d89612a4b565b6008546001600160a01b039190610da39083163314612cde565b166001600160601b0360a01b600354161760035580f35b50346102b557806003193601126102b55780818290839260019384956009958654965b87891115610e105750505060c09550600a54604051958652602086015260408501526060840152608083015260a0820152f35b90919293888452600d6020818152604086209160405191610e3083612ac6565b8354835260018060a01b03908188860154169084015260029081850154166040840152600390818501546060850152604051610e738161095a8160048a01612c0d565b6080850152604051610e8c8161095a8160058a01612c0d565b60a085015260405193600694610ea88161095a81898b01612c0d565b60c0820152604051610ec18161095a8160078b01612c0d565b60e0820152604051610eda8161095a8160088b01612c0d565b61010082015287860154610120820152600a860154610140820152610200600b870154966101608301978852601060ff9182600c8201541697610f226101808701998a612d26565b8101546101a0860152600e8101546101c0860152600f8101546101e0860152015416151591015282518481101561103957610f78575050505050610f68610f6e91612d17565b98612d17565b9793929190610ddd565b829d9a959d51848110156110395703610fa15750505050610f9b610f6e91612d17565b95612d17565b819a939a9998949951838110156110255703610fd7575050610f6e91610fc9610fd192612d17565b985190612dae565b94612d17565b989198969296519081101561101157600414610ff8575b50610f6e90612d17565b96610f6e9195610fc961100a92612d17565b9490610fee565b634e487b7160e01b86526021600452602486fd5b634e487b7160e01b89526021600452602489fd5b634e487b7160e01b8a52602160045260248afd5b50346102b55760208060031936011261043d576006600435818110158061111f576009549061107b82612dbb565b93869560015b848111156110d05788888861109582612dbb565b925b8281106110ac57604051806108838682612ca3565b806110ba6110cb9284612d6f565b516110c58287612d6f565b52612d17565b611097565b808952600d825260408920600c015460ff16846110395783811015611039578614611104575b6110ff90612d17565b611081565b9661111781896110c56110ff948b612d6f565b9790506110f6565b8480fd5b50346102b557806003193601126102b55760206001600160401b0360075460a01c16604051908152f35b50346102b557602060031981813601126114a35760043591338452600b815261117c60ff604086205416612d32565b828452600d81526040842091600c83019260ff84541660068110156107415760020361146f5760ff6010820154161561143657600b8101546001546040516370a0823160e01b815230600482015291936001600160a01b03918216929091908681602481875afa80156113be5786918b91611405575b50106113c95760018401805460405163a9059cbb60e01b81529083166001600160a01b0316600482015260248101879052909387908290818d816044810103925af19081156113be578a916113a1575b501561136a57916112b89391898785819683541694541692826003870154966112dc60098201549160066112cb6040519d8e9c8d9b6304ad3cef60e31b8d5260048d015261010060248d015261129f6101048d0160048701612c0d565b9060448d0152888c82030160648d015260078501612c0d565b878b82030160848c015260088401612c0d565b91868a84030160a48b015201612c0d565b9060c487015285810392830160e48701525201925af1801561135f57611335575b507f430f5c27525242f9d67ea1f77d37d42af15eeccaf0b9a743214f3cf6c6062a9e92600360ff19825416179055604051908152a280f35b8290813d8311611358575b61134a8183612ae2565b810103126106f457386112fd565b503d611340565b6040513d88823e3d90fd5b60405162461bcd60e51b815260048101879052600f60248201526e151c985b9cd9995c8819985a5b1959608a1b6044820152606490fd5b6113b89150873d89116102a3576102958183612ae2565b38611242565b6040513d8c823e3d90fd5b60405162461bcd60e51b8152600481018790526014602482015273496e73756666696369656e742062616c616e636560601b6044820152606490fd5b809250888092503d831161142f575b61141e8183612ae2565b810103126106f457859051386111f2565b503d611414565b60405162461bcd60e51b8152600481018490526011602482015270159491881b9bdd08199d5b199a5b1b1959607a1b6044820152606490fd5b60405162461bcd60e51b815260048101849052600c60248201526b139bdd08185c1c1c9bdd995960a21b6044820152606490fd5b8280fd5b50346102b557806003193601126102b5576020600554604051908152f35b50346102b557806003193601126102b5576009546114e281612dbb565b9060015b818111156114fc57604051806108838582612ca3565b600019810181811161151c5790806110c56115179386612d6f565b6114e6565b634e487b7160e01b85526011600452602485fd5b50346102b55760208060031936011261043d5760043590818352600d815260408320600c810160ff8154166006811015611011576003036116e65760028201546001600160a01b039290831633036116aa57600d810154420390428211611694576301e133806115b96115c0936127106115b3600a600387015496015486612d83565b04612d83565b0490612dae565b6001546040516323b872dd60e01b81523360048201523060248201526044810183905291938591839160649183918b91165af190811561135f578691611677575b501561163f57805460ff191660041790556040519081527fe57c83410ab16d767654351928d1ea4b894f6c93e04e4e6408bd7d301dcd82db9190a280f35b60405162461bcd60e51b815260048101849052601060248201526f14995c185e5b595b9d0819985a5b195960821b6044820152606490fd5b61168e9150843d86116102a3576102958183612ae2565b38611601565b634e487b7160e01b600052601160045260246000fd5b60405162461bcd60e51b81526004810185905260146024820152734f6e6c792062757965722063616e20726570617960601b6044820152606490fd5b60405162461bcd60e51b815260048101849052600a602482015269139bdd08199d5b99195960b21b6044820152606490fd5b50346102b557806003193601126102b55760405160608101908082106001600160401b038311176117a25761088391604052603181527f5969656c6458436f72652076322e302e30202d20456e68616e63656420436f6d6020820152701b5a5d1d19594813585b9859d95b595b9d607a1b6040820152604051918291602083526020830190612b1a565b634e487b7160e01b600052604160045260246000fd5b50346102b55760203660031901126102b5576117d2612a4b565b6008546001600160a01b0391906117ec9083163314612cde565b166001600160601b0360a01b600254161760025580f35b50346102b557806003193601126102b5578060018060a01b0361182b81600854163314612cde565b815416803b15611888578190602460405180948193630a9d793d60e01b83523060048401525af180156102aa57611860575080f35b6001600160401b0381116118745760405280f35b634e487b7160e01b82526041600452602482fd5b50fd5b50346102b557806003193601126102b5576003546040516001600160a01b039091168152602090f35b50346102b55760203660031901126102b5576004358152600d602052604090208054600160a01b6001900391826001820154169260028201541660a052600381015460e052604051928380600484019061190d91612c0d565b036119189085612ae2565b604051938461192a8160058601612c0d565b036119359086612ae2565b60405194856119478160068701612c0d565b036119529087612ae2565b60405195866119648160078801612c0d565b0361196f9088612ae2565b604051806119808160088901612c0d565b0361198b9082612ae2565b600986015460c052600a86015497600b87015492600c88015460ff1694600d89015496600e8a015498600f8b01549a6010015460ff169b60405180608052526080516020015260a0516080516040015260e051608051606001526102208060805160800152608051016119fd91612b1a565b6080518082039060a00152611a1191612b1a565b6080518082039060c00152611a2591612b1a565b6080518082039060e00152611a3991612b1a565b608051808203906101000152611a4e91612b1a565b9660c05160805161012001526080516101400152608051610160015260805161018001611a7a91612b5a565b6080516101a001526080516101c001526080516101e001521515608051610200015260805180910390f35b50346102b557806003193601126102b557546040516001600160a01b039091168152602090f35b50346102b5576101003660031901126102b557611ae7612a4b565b60449081356001600160401b0381116124ad57611b08903690600401612b7d565b91606480356001600160401b0381116124a957611b29903690600401612b7d565b6084356001600160401b0381116124a557611b48903690600401612b7d565b9060a4356001600160401b0381116124a157611b68903690600401612b7d565b9260c4356001600160401b03811161249d57611b88903690600401612b7d565b946024351561245c574260e435111561241b578751156123e5578451156123ab57855115612374575050611bbd600954612d17565b958660095560405195611bcf87612ac6565b87875233602088015260018060a01b031660408701526024356060870152608086015260a085015260c084015260e083015261010082015260e435610120820152826101408201528261016082015282610180820152426101a0820152826101c0820152826101e082015282610200820152818352600d60205260408320815181556001810160018060a01b03602084015116906001600160601b0360a01b9182825416179055600282019060018060a01b03604085015116908254161790556060820151600382015560808201518051906001600160401b038211612038578190611cbe6004850154612bd3565b601f8111612324575b50602090601f83116001146122b55787926122aa575b50508160011b916000199060031b1c19161760048201555b60a08201518051906001600160401b038211612038578190611d1a6005850154612bd3565b601f811161225a575b50602090601f83116001146121eb5787926121e0575b50508160011b916000199060031b1c19161760058201555b60c08201518051906001600160401b038211612038578190611d766006850154612bd3565b601f8111612190575b50602090601f8311600114612121578792612116575b50508160011b916000199060031b1c19161760068201555b60e08201518051906001600160401b038211612038578190611dd26007850154612bd3565b601f81116120c6575b50602090601f831160011461205757879261204c575b50508160011b916000199060031b1c19161760078201555b6101008201518051906001600160401b038211612038578190611e2f6008850154612bd3565b601f8111611fe8575b50602090601f8311600114611f79578792611f6e575b50508160011b916000199060031b1c19161760088201555b6101208201516009820155610140820151600a820155610160820151600b82015561018082015190600c8101600683101561101157601060ff9261020092841995858783541691161790556101a0860151600d8201556101c0860151600e8201556101e0860151600f820155019301511515918354169116179055338252600f60205260408220805492600160401b841015611f5a575082611f0f916001602095018155612aae565b81549060031b9083821b91600019901b19161790556040516024358152817f9758304886e5c81bee0a2c255db6012542526c0022e7dd824f7f7dac0bcd6d14843393a3604051908152f35b634e487b7160e01b81526041600452602490fd5b015190503880611e4e565b9250600884018752602087209087935b601f1984168510611fcd576001945083601f19811610611fb4575b505050811b016008820155611e66565b015160001960f88460031b161c19169055388080611fa4565b81810151835560209485019460019093019290910190611f89565b90915060088401875260208720601f840160051c810160208510612031575b90849392915b601f830160051c82018110612023575050611e38565b89815585945060010161200d565b5080612007565b634e487b7160e01b86526041600452602486fd5b015190503880611df1565b9250600784018752602087209087935b601f19841685106120ab576001945083601f19811610612092575b505050811b016007820155611e09565b015160001960f88460031b161c19169055388080612082565b81810151835560209485019460019093019290910190612067565b90915060078401875260208720601f840160051c81016020851061210f575b90849392915b601f830160051c82018110612101575050611ddb565b8981558594506001016120eb565b50806120e5565b015190503880611d95565b9250600684018752602087209087935b601f1984168510612175576001945083601f1981161061215c575b505050811b016006820155611dad565b015160001960f88460031b161c1916905538808061214c565b81810151835560209485019460019093019290910190612131565b90915060068401875260208720601f840160051c8101602085106121d9575b90849392915b601f830160051c820181106121cb575050611d7f565b8981558594506001016121b5565b50806121af565b015190503880611d39565b9250600584018752602087209087935b601f198416851061223f576001945083601f19811610612226575b505050811b016005820155611d51565b015160001960f88460031b161c19169055388080612216565b818101518355602094850194600190930192909101906121fb565b90915060058401875260208720601f840160051c8101602085106122a3575b90849392915b601f830160051c82018110612295575050611d23565b89815585945060010161227f565b5080612279565b015190503880611cdd565b9250600484018752602087209087935b601f1984168510612309576001945083601f198116106122f0575b505050811b016004820155611cf5565b015160001960f88460031b161c191690553880806122e0565b818101518355602094850194600190930192909101906122c5565b90915060048401875260208720601f840160051c81016020851061236d575b90849392915b601f830160051c8201811061235f575050611cc7565b898155859450600101612349565b5080612343565b72109d5e595c881b985b59481c995c5d5a5c9959606a1b6040519162461bcd60e51b83526020600484015260136024840152820152fd5b75115e1c1bdc9d195c881b985b59481c995c5d5a5c995960521b6040519162461bcd60e51b83526020600484015260166024840152820152fd5b7110dbdb5b5bd91a5d1e481c995c5d5a5c995960721b6040519162461bcd60e51b83526020600484015260126024840152820152fd5b7f4475652064617465206d757374206265206675747572650000000000000000006040519162461bcd60e51b83526020600484015260176024840152820152fd5b7f416d6f756e74206d75737420626520706f7369746976650000000000000000006040519162461bcd60e51b83526020600484015260176024840152820152fd5b8880fd5b8780fd5b8680fd5b8580fd5b8380fd5b50346102b55760203660031901126102b5576004358152600d602052604081206040516124dd81612ac6565b8154815260018201546001600160a01b03908116602083015260028301541660408083019182526003840154606084019081529051919390916125278161095a8160048601612c0d565b60808401526040516125408161095a8160058601612c0d565b60a08401526040516125598161095a8160068601612c0d565b60c08401526040516125728161095a8160078601612c0d565b60e084015260405161258b8161095a8160088601612c0d565b6101008401526009810154610120840152600a810154610140840152600b81015461016084015260ff601081600c84015416926125cd61018087019485612d26565b600d8101546101a0870152600e8101546101c0870152600f8101546101e08701520154166102008401901515815260018060a01b036020850151169460018060a01b039051169251608085015160a08601519160c08701519361014061012089015198015195519960068b1015610b8e57506126ae959361267c6126989460209c979461268a945115159a6040519e8f9e8f908152015260408d015261014060608d01526101408c0190612b1a565b908a820360808c0152612b1a565b9088820360a08a0152612b1a565b9460c087015260e0860152610100850190612b5a565b6101208301520390f35b50346102b557600319906040368301126102b55760249182356001600160401b0381116114a357366023820112156114a35780600401356126f881612b03565b6127056040519182612ae2565b81815260209283820187819460051b830101913683116124a15788869101915b8383106129775750506004546001600160a01b0396925086163303905061293c576004358652600e84526040862054948515612903578790868852600d8652604088209351156128f057856127e29551998a9485600f880155600587601081019560ff199660018882541617905560035416926003820154986127f56009840154926040519d8e98899788976304fb536b60e21b895260c060048a01526127d260c48a0160048301612c0d565b92858a850301908a015201612c0d565b9085820301604486015260068d01612c0d565b918a6064850152608484015260a483015203915afa9485156128e55788956128b6575b5084600a8501556002600c850191825416179055612328918281029281840414901517156128a45750838596977f427e01b094cee80465b93663a800e401f0eb28213a4fbd6d1cc217f0660366549693600b6127107f41c9b09716a74f8a100ce1159febf82ab674e27ff67c16f4fed74d6fc1c628699504910155604051908152a2604051908152a280f35b634e487b7160e01b8752601160045286fd5b9094508581813d83116128de575b6128ce8183612ae2565b810103126124a157519338612818565b503d6128c4565b6040513d8a823e3d90fd5b50634e487b7160e01b8752603260045286fd5b60405162461bcd60e51b8152600481018690526012818a015271125b9d985b1a59081c995c5d595cdd08125160721b6044820152606490fd5b60405162461bcd60e51b8152600481018590526014818901527327b7363c902b29231021b7b7b93234b730ba37b960611b6044820152606490fd5b8235815291810191869101612725565b50346102b55760403660031901126102b5576129a1612a4b565b6001600160a01b03168152600f60205260408120805460243592908310156102b55760206129cf8484612aae565b90546040519160031b1c8152f35b50346102b557806003193601126102b5576020600a54604051908152f35b50346102b557806003193601126102b5576001546040516001600160a01b039091168152602090f35b90503461043d57602036600319011261043d5760406020926004358152600e845220548152f35b600435906001600160a01b03821682036106f457565b600a54811015612a9857600a6000527fc65a7bb8d6351c1cf70c95a316cc6a92839c986682d98bc35f958f4883f9d2a80190600090565b634e487b7160e01b600052603260045260246000fd5b8054821015612a985760005260206000200190600090565b61022081019081106001600160401b038211176117a257604052565b90601f801991011681019081106001600160401b038211176117a257604052565b6001600160401b0381116117a25760051b60200190565b919082519283825260005b848110612b46575050826000602080949584010152601f8019910116010190565b602081830181015184830182015201612b25565b906006821015612b675752565b634e487b7160e01b600052602160045260246000fd5b81601f820112156106f4578035906001600160401b0382116117a25760405192612bb1601f8401601f191660200185612ae2565b828452602083830101116106f457816000926020809301838601378301015290565b90600182811c92168015612c03575b6020831014612bed57565b634e487b7160e01b600052602260045260246000fd5b91607f1691612be2565b9060009291805491612c1e83612bd3565b918282526001938481169081600014612c805750600114612c40575b50505050565b90919394506000526020928360002092846000945b838610612c6c575050505001019038808080612c3a565b805485870183015294019385908201612c55565b9294505050602093945060ff191683830152151560051b01019038808080612c3a565b6020908160408183019282815285518094520193019160005b828110612cca575050505090565b835185529381019392810192600101612cbc565b15612ce557565b60405162461bcd60e51b815260206004820152600a60248201526927b7363c9037bbb732b960b11b6044820152606490fd5b60001981146116945760010190565b6006821015612b675752565b15612d3957565b60405162461bcd60e51b815260206004820152600e60248201526d4f6e6c7920636f6d6d697474656560901b6044820152606490fd5b8051821015612a985760209160051b010190565b8181029291811591840414171561169457565b908160209103126106f4575180151581036106f45790565b9190820180921161169457565b90612dc582612b03565b612dd26040519182612ae2565b8281528092612de3601f1991612b03565b019060203691013756fea26469706673582212206c75cb576d3fa8935aada858155ff480862ec6566a3d28414bfbb6a61ae479a464736f6c63430008140033",
  "linkReferences": {},
  "deployedLinkReferences": {}
}