{
  "_format": "hh-sol-artifact-1",
  "contractName": "YieldXInvoiceNFT",
  "sourceName": "contracts/YieldXInvoiceNFT.sol",
  "abi": [
    {
      "inputs": [],
      "stateMutability": "nonpayable",
      "type": "constructor"
    },
    {
      "anonymous": false,
      "inputs": [
        {
          "indexed": true,
          "internalType": "address",
          "name": "owner",
          "type": "address"
        },
        {
          "indexed": true,
          "internalType": "address",
          "name": "approved",
          "type": "address"
        },
        {
          "indexed": true,
          "internalType": "uint256",
          "name": "tokenId",
          "type": "uint256"
        }
      ],
      "name": "Approval",
      "type": "event"
    },
    {
      "anonymous": false,
      "inputs": [
        {
          "indexed": true,
          "internalType": "address",
          "name": "owner",
          "type": "address"
        },
        {
          "indexed": true,
          "internalType": "address",
          "name": "operator",
          "type": "address"
        },
        {
          "indexed": false,
          "internalType": "bool",
          "name": "approved",
          "type": "bool"
        }
      ],
      "name": "ApprovalForAll",
      "type": "event"
    },
    {
      "anonymous": false,
      "inputs": [
        {
          "indexed": true,
          "internalType": "uint256",
          "name": "tokenId",
          "type": "uint256"
        },
        {
          "indexed": false,
          "internalType": "string",
          "name": "imageHash",
          "type": "string"
        },
        {
          "indexed": false,
          "internalType": "string",
          "name": "metadataHash",
          "type": "string"
        }
      ],
      "name": "IPFSMetadataUpdated",
      "type": "event"
    },
    {
      "anonymous": false,
      "inputs": [
        {
          "indexed": true,
          "internalType": "uint256",
          "name": "tokenId",
          "type": "uint256"
        },
        {
          "indexed": true,
          "internalType": "address",
          "name": "to",
          "type": "address"
        },
        {
          "indexed": false,
          "internalType": "string",
          "name": "commodity",
          "type": "string"
        },
        {
          "indexed": false,
          "internalType": "uint256",
          "name": "amount",
          "type": "uint256"
        }
      ],
      "name": "InvoiceNFTMinted",
      "type": "event"
    },
    {
      "anonymous": false,
      "inputs": [
        {
          "indexed": true,
          "internalType": "uint256",
          "name": "tokenId",
          "type": "uint256"
        },
        {
          "indexed": false,
          "internalType": "uint8",
          "name": "newStatus",
          "type": "uint8"
        }
      ],
      "name": "InvoiceStatusUpdated",
      "type": "event"
    },
    {
      "anonymous": false,
      "inputs": [
        {
          "indexed": true,
          "internalType": "uint256",
          "name": "tokenId",
          "type": "uint256"
        },
        {
          "indexed": false,
          "internalType": "uint256",
          "name": "riskScore",
          "type": "uint256"
        },
        {
          "indexed": false,
          "internalType": "uint256",
          "name": "apr",
          "type": "uint256"
        }
      ],
      "name": "InvoiceVerified",
      "type": "event"
    },
    {
      "anonymous": false,
      "inputs": [
        {
          "indexed": true,
          "internalType": "address",
          "name": "from",
          "type": "address"
        },
        {
          "indexed": true,
          "internalType": "address",
          "name": "to",
          "type": "address"
        },
        {
          "indexed": true,
          "internalType": "uint256",
          "name": "tokenId",
          "type": "uint256"
        }
      ],
      "name": "Transfer",
      "type": "event"
    },
    {
      "inputs": [
        {
          "internalType": "uint256",
          "name": "",
          "type": "uint256"
        }
      ],
      "name": "amount",
      "outputs": [
        {
          "internalType": "uint256",
          "name": "",
          "type": "uint256"
        }
      ],
      "stateMutability": "view",
      "type": "function"
    },
    {
      "inputs": [
        {
          "internalType": "address",
          "name": "to",
          "type": "address"
        },
        {
          "internalType": "uint256",
          "name": "tokenId",
          "type": "uint256"
        }
      ],
      "name": "approve",
      "outputs": [],
      "stateMutability": "nonpayable",
      "type": "function"
    },
    {
      "inputs": [
        {
          "internalType": "address",
          "name": "owner",
          "type": "address"
        }
      ],
      "name": "balanceOf",
      "outputs": [
        {
          "internalType": "uint256",
          "name": "",
          "type": "uint256"
        }
      ],
      "stateMutability": "view",
      "type": "function"
    },
    {
      "inputs": [
        {
          "internalType": "uint256",
          "name": "",
          "type": "uint256"
        }
      ],
      "name": "buyerName",
      "outputs": [
        {
          "internalType": "string",
          "name": "",
          "type": "string"
        }
      ],
      "stateMutability": "view",
      "type": "function"
    },
    {
      "inputs": [
        {
          "internalType": "uint256",
          "name": "",
          "type": "uint256"
        }
      ],
      "name": "commodity",
      "outputs": [
        {
          "internalType": "string",
          "name": "",
          "type": "string"
        }
      ],
      "stateMutability": "view",
      "type": "function"
    },
    {
      "inputs": [
        {
          "internalType": "uint256",
          "name": "",
          "type": "uint256"
        }
      ],
      "name": "createdAt",
      "outputs": [
        {
          "internalType": "uint256",
          "name": "",
          "type": "uint256"
        }
      ],
      "stateMutability": "view",
      "type": "function"
    },
    {
      "inputs": [
        {
          "internalType": "uint256",
          "name": "",
          "type": "uint256"
        }
      ],
      "name": "destination",
      "outputs": [
        {
          "internalType": "string",
          "name": "",
          "type": "string"
        }
      ],
      "stateMutability": "view",
      "type": "function"
    },
    {
      "inputs": [
        {
          "internalType": "uint256",
          "name": "",
          "type": "uint256"
        }
      ],
      "name": "dueDate",
      "outputs": [
        {
          "internalType": "uint256",
          "name": "",
          "type": "uint256"
        }
      ],
      "stateMutability": "view",
      "type": "function"
    },
    {
      "inputs": [
        {
          "internalType": "uint256",
          "name": "tokenId",
          "type": "uint256"
        }
      ],
      "name": "exists",
      "outputs": [
        {
          "internalType": "bool",
          "name": "",
          "type": "bool"
        }
      ],
      "stateMutability": "view",
      "type": "function"
    },
    {
      "inputs": [
        {
          "internalType": "uint256",
          "name": "",
          "type": "uint256"
        }
      ],
      "name": "exporterName",
      "outputs": [
        {
          "internalType": "string",
          "name": "",
          "type": "string"
        }
      ],
      "stateMutability": "view",
      "type": "function"
    },
    {
      "inputs": [
        {
          "internalType": "uint256",
          "name": "",
          "type": "uint256"
        }
      ],
      "name": "finalAPR",
      "outputs": [
        {
          "internalType": "uint256",
          "name": "",
          "type": "uint256"
        }
      ],
      "stateMutability": "view",
      "type": "function"
    },
    {
      "inputs": [
        {
          "internalType": "uint256",
          "name": "tokenId",
          "type": "uint256"
        }
      ],
      "name": "getApproved",
      "outputs": [
        {
          "internalType": "address",
          "name": "",
          "type": "address"
        }
      ],
      "stateMutability": "view",
      "type": "function"
    },
    {
      "inputs": [
        {
          "internalType": "uint256",
          "name": "tokenId",
          "type": "uint256"
        }
      ],
      "name": "getIPFSData",
      "outputs": [
        {
          "internalType": "string",
          "name": "imageHash",
          "type": "string"
        },
        {
          "internalType": "string",
          "name": "metadataHash",
          "type": "string"
        },
        {
          "internalType": "string",
          "name": "documentHash",
          "type": "string"
        },
        {
          "internalType": "uint256",
          "name": "lastUpdated",
          "type": "uint256"
        },
        {
          "internalType": "bool",
          "name": "isUploaded",
          "type": "bool"
        }
      ],
      "stateMutability": "view",
      "type": "function"
    },
    {
      "inputs": [
        {
          "internalType": "uint256",
          "name": "tokenId",
          "type": "uint256"
        }
      ],
      "name": "getInvoiceData",
      "outputs": [
        {
          "internalType": "string",
          "name": "commodityType",
          "type": "string"
        },
        {
          "internalType": "uint256",
          "name": "invoiceAmount",
          "type": "uint256"
        },
        {
          "internalType": "string",
          "name": "exporter",
          "type": "string"
        },
        {
          "internalType": "string",
          "name": "buyer",
          "type": "string"
        },
        {
          "internalType": "string",
          "name": "dest",
          "type": "string"
        },
        {
          "internalType": "uint256",
          "name": "due",
          "type": "uint256"
        },
        {
          "internalType": "uint8",
          "name": "currentStatus",
          "type": "uint8"
        },
        {
          "internalType": "uint256",
          "name": "created",
          "type": "uint256"
        },
        {
          "internalType": "uint256",
          "name": "risk",
          "type": "uint256"
        },
        {
          "internalType": "uint256",
          "name": "apr",
          "type": "uint256"
        }
      ],
      "stateMutability": "view",
      "type": "function"
    },
    {
      "inputs": [],
      "name": "getProtocol",
      "outputs": [
        {
          "internalType": "address",
          "name": "",
          "type": "address"
        }
      ],
      "stateMutability": "view",
      "type": "function"
    },
    {
      "inputs": [
        {
          "internalType": "uint256",
          "name": "",
          "type": "uint256"
        }
      ],
      "name": "ipfsData",
      "outputs": [
        {
          "internalType": "string",
          "name": "imageHash",
          "type": "string"
        },
        {
          "internalType": "string",
          "name": "metadataHash",
          "type": "string"
        },
        {
          "internalType": "string",
          "name": "documentHash",
          "type": "string"
        },
        {
          "internalType": "uint256",
          "name": "lastUpdated",
          "type": "uint256"
        },
        {
          "internalType": "bool",
          "name": "isUploaded",
          "type": "bool"
        }
      ],
      "stateMutability": "view",
      "type": "function"
    },
    {
      "inputs": [
        {
          "internalType": "address",
          "name": "owner",
          "type": "address"
        },
        {
          "internalType": "address",
          "name": "operator",
          "type": "address"
        }
      ],
      "name": "isApprovedForAll",
      "outputs": [
        {
          "internalType": "bool",
          "name": "",
          "type": "bool"
        }
      ],
      "stateMutability": "view",
      "type": "function"
    },
    {
      "inputs": [
        {
          "internalType": "address",
          "name": "to",
          "type": "address"
        },
        {
          "internalType": "string",
          "name": "_commodity",
          "type": "string"
        },
        {
          "internalType": "uint256",
          "name": "_amount",
          "type": "uint256"
        },
        {
          "internalType": "string",
          "name": "_exporterName",
          "type": "string"
        },
        {
          "internalType": "string",
          "name": "_buyerName",
          "type": "string"
        },
        {
          "internalType": "string",
          "name": "_destination",
          "type": "string"
        },
        {
          "internalType": "uint256",
          "name": "_dueDate",
          "type": "uint256"
        },
        {
          "internalType": "string",
          "name": "_documentHash",
          "type": "string"
        }
      ],
      "name": "mintInvoiceNFT",
      "outputs": [
        {
          "internalType": "uint256",
          "name": "",
          "type": "uint256"
        }
      ],
      "stateMutability": "nonpayable",
      "type": "function"
    },
    {
      "inputs": [],
      "name": "name",
      "outputs": [
        {
          "internalType": "string",
          "name": "",
          "type": "string"
        }
      ],
      "stateMutability": "view",
      "type": "function"
    },
    {
      "inputs": [
        {
          "internalType": "uint256",
          "name": "tokenId",
          "type": "uint256"
        }
      ],
      "name": "ownerOf",
      "outputs": [
        {
          "internalType": "address",
          "name": "",
          "type": "address"
        }
      ],
      "stateMutability": "view",
      "type": "function"
    },
    {
      "inputs": [],
      "name": "protocol",
      "outputs": [
        {
          "internalType": "address",
          "name": "",
          "type": "address"
        }
      ],
      "stateMutability": "view",
      "type": "function"
    },
    {
      "inputs": [
        {
          "internalType": "uint256",
          "name": "",
          "type": "uint256"
        }
      ],
      "name": "riskScore",
      "outputs": [
        {
          "internalType": "uint256",
          "name": "",
          "type": "uint256"
        }
      ],
      "stateMutability": "view",
      "type": "function"
    },
    {
      "inputs": [
        {
          "internalType": "address",
          "name": "from",
          "type": "address"
        },
        {
          "internalType": "address",
          "name": "to",
          "type": "address"
        },
        {
          "internalType": "uint256",
          "name": "tokenId",
          "type": "uint256"
        }
      ],
      "name": "safeTransferFrom",
      "outputs": [],
      "stateMutability": "nonpayable",
      "type": "function"
    },
    {
      "inputs": [
        {
          "internalType": "address",
          "name": "operator",
          "type": "address"
        },
        {
          "internalType": "bool",
          "name": "approved",
          "type": "bool"
        }
      ],
      "name": "setApprovalForAll",
      "outputs": [],
      "stateMutability": "nonpayable",
      "type": "function"
    },
    {
      "inputs": [
        {
          "internalType": "address",
          "name": "_protocol",
          "type": "address"
        }
      ],
      "name": "setProtocol",
      "outputs": [],
      "stateMutability": "nonpayable",
      "type": "function"
    },
    {
      "inputs": [
        {
          "internalType": "uint256",
          "name": "",
          "type": "uint256"
        }
      ],
      "name": "status",
      "outputs": [
        {
          "internalType": "uint8",
          "name": "",
          "type": "uint8"
        }
      ],
      "stateMutability": "view",
      "type": "function"
    },
    {
      "inputs": [
        {
          "internalType": "bytes4",
          "name": "interfaceId",
          "type": "bytes4"
        }
      ],
      "name": "supportsInterface",
      "outputs": [
        {
          "internalType": "bool",
          "name": "",
          "type": "bool"
        }
      ],
      "stateMutability": "pure",
      "type": "function"
    },
    {
      "inputs": [],
      "name": "symbol",
      "outputs": [
        {
          "internalType": "string",
          "name": "",
          "type": "string"
        }
      ],
      "stateMutability": "view",
      "type": "function"
    },
    {
      "inputs": [
        {
          "internalType": "uint256",
          "name": "",
          "type": "uint256"
        }
      ],
      "name": "tokenOwner",
      "outputs": [
        {
          "internalType": "address",
          "name": "",
          "type": "address"
        }
      ],
      "stateMutability": "view",
      "type": "function"
    },
    {
      "inputs": [
        {
          "internalType": "uint256",
          "name": "tokenId",
          "type": "uint256"
        }
      ],
      "name": "tokenURI",
      "outputs": [
        {
          "internalType": "string",
          "name": "",
          "type": "string"
        }
      ],
      "stateMutability": "view",
      "type": "function"
    },
    {
      "inputs": [],
      "name": "totalSupply",
      "outputs": [
        {
          "internalType": "uint256",
          "name": "",
          "type": "uint256"
        }
      ],
      "stateMutability": "view",
      "type": "function"
    },
    {
      "inputs": [
        {
          "internalType": "address",
          "name": "from",
          "type": "address"
        },
        {
          "internalType": "address",
          "name": "to",
          "type": "address"
        },
        {
          "internalType": "uint256",
          "name": "tokenId",
          "type": "uint256"
        }
      ],
      "name": "transferFrom",
      "outputs": [],
      "stateMutability": "nonpayable",
      "type": "function"
    },
    {
      "inputs": [
        {
          "internalType": "uint256",
          "name": "tokenId",
          "type": "uint256"
        },
        {
          "internalType": "string",
          "name": "_imageHash",
          "type": "string"
        },
        {
          "internalType": "string",
          "name": "_metadataHash",
          "type": "string"
        }
      ],
      "name": "updateIPFSMetadata",
      "outputs": [],
      "stateMutability": "nonpayable",
      "type": "function"
    },
    {
      "inputs": [
        {
          "internalType": "uint256",
          "name": "tokenId",
          "type": "uint256"
        },
        {
          "internalType": "uint256",
          "name": "_riskScore",
          "type": "uint256"
        },
        {
          "internalType": "uint256",
          "name": "_finalAPR",
          "type": "uint256"
        }
      ],
      "name": "updateInvoiceVerification",
      "outputs": [],
      "stateMutability": "nonpayable",
      "type": "function"
    },
    {
      "inputs": [
        {
          "internalType": "uint256",
          "name": "tokenId",
          "type": "uint256"
        },
        {
          "internalType": "uint8",
          "name": "newStatus",
          "type": "uint8"
        }
      ],
      "name": "updateStatus",
      "outputs": [],
      "stateMutability": "nonpayable",
      "type": "function"
    }
  ],
  "bytecode": "0x608060405234620000d7576000620000188154620000dc565b601f8111620000aa575b50602471165a595b191608125b9d9bda58d94813919560721b0181556001906200004d8254620000dc565b90601f82116200007b575b600a64165613919560da1b01835560028390556040516123f190816200011a8239f35b82815282601f60208320930160051c8301925b8381106200009e57505062000058565b8281550183906200008e565b818052601f60208320910160051c8101905b818110620000cb575062000022565b828155600101620000bc565b600080fd5b90600182811c921680156200010e575b6020831014620000f857565b634e487b7160e01b600052602260045260246000fd5b91607f1691620000ec56fe608080604052600436101561001357600080fd5b600090813560e01c90816301ffc9a714611ce65750806306fdde0314611c17578063081812fc14611bcc578063095ea7b314611adc57806309a2283a146119ac5780630a9d793d1461192d57806318160ddd146119015780631caaa487146118ce57806323b872dd146117115780632569e77814610cc45780632658fd0a14610c64578063275019b014610c3a5780633a1b3d3114610ba457806342842e0e14610b1957806342d21ef714610aec57806344f6891e14610ac15780634f558e7914610a8c57806350a1676e14610a6257806358461441146109b7578063619d96161461066e5780636352211e1461062357806370a082311461054f5780637823db25146105255780638b0d0258146104fb5780638ce744261461024557806395d89b41146104305780639614ed1f146104055780639ece273c14610375578063a22cb465146102e3578063a613f485146102b8578063b53632c21461028e578063c87b56dd1461026e578063d16352af14610245578063e985e9c5146101e75763ee4a2f51146101a257600080fd5b346101e45760203660031901126101e4576101cc60406101e0926004358152600760205220611dfe565b604051918291602083526020830190611ec7565b0390f35b80fd5b50346101e45760403660031901126101e457610201611eec565b6024356001600160a01b0381811693918490036102405760409216815260116020522090600052602052602060ff604060002054166040519015158152f35b600080fd5b50346101e457806003193601126101e4576003546040516001600160a01b039091168152602090f35b50346101e45760203660031901126101e4576101e06101cc600435612085565b50346101e45760203660031901126101e45760406020916004358152600d83522054604051908152f35b50346101e45760203660031901126101e4576101cc60406101e0926004358152600860205220611dfe565b50346101e45760403660031901126101e4576102fd611eec565b6024358015159081810361037157610342903385526011602052604085209360018060a01b0316938460005260205260406000209060ff801983541691151516179055565b6040519081527f17307eab39ab6107e8899845ad3d59bd9653f200f220920489ca2b5937696c3160203392a380f35b8380fd5b50346101e45760603660031901126101e4576004357fb08f24163c56b1d0b9f8303da54a8aaae5db5ec8eb5847c167142ef36a827b5860406024356044356103e060018060a01b036103cc81600354163314611fe2565b868852600460205284882054161515612042565b848652600d6020528183872055600e602052808387205582519182526020820152a280f35b50346101e45760203660031901126101e4576101cc60406101e0926004358152600560205220611dfe565b50346101e457806003193601126101e4576040516000600180549061045482611d57565b808552918181169081156104d4575060011461047b575b6101e0846101cc81860382611ddd565b600081815292507fb10e2d527612073b26eecdfd717e6a320cf44b4afac2b0732d9fcbe2b7fa0cf65b8284106104bc5750505081016020016101cc8261046b565b805460208587018101919091529093019281016104a4565b60ff191660208087019190915292151560051b850190920192506101cc915083905061046b565b50346101e45760203660031901126101e45760406020916004358152600683522054604051908152f35b50346101e45760203660031901126101e45760406020916004358152600e83522054604051908152f35b50346101e457602090816003193601126101e4576001600160a01b039081610575611eec565b1680156105ef5781926002549260001984019384116105db5760015b848111156105a3578686604051908152f35b808252600487528383604084205416146105c6575b6105c19061201d565b610591565b946105d36105c19161201d565b9590506105b8565b634e487b7160e01b81526011600452602490fd5b60405162461bcd60e51b815260048101859052600c60248201526b5a65726f206164647265737360a01b6044820152606490fd5b50346101e45760203660031901126101e4576020906040600435918281526004845260018060a01b039261065d8484842054161515612042565b815260048452205416604051908152f35b50346101e45760603660031901126101e4576004356001600160401b03602435818111610371576106a3903690600401611f52565b906044358181116109b3576106bc903690600401611f52565b60018060a01b039160036106d4848254163314611fe2565b8587526106ee602094600486526040892054161515612042565b858752600f84526040872085519083821161099f5761070d8154611d57565b91601f9283811161095f575b5080878482116001146108fe578b916108f3575b508160011b9160001990861b1c19161790555b868852600f85526001928360408a20019185519182116108df576107648354611d57565b81811161089c575b50898791831160011461081157937f955fca6958de7e097c58f7d6577c6fa72f6b4bf02efb1bb876732bcb38aa43fb9896938361080097946004946107f39b9891610806575b5060001982851b1c191690851b1790555b898b52600f855260408b20904290820155019060ff19825416179055604051948594604086526040860190611ec7565b9184830390850152611ec7565b0390a280f35b9050860151386107b2565b50828a52868a2090601f1983168b5b81811061088757509386846004946107f39b98946108009a977f955fca6958de7e097c58f7d6577c6fa72f6b4bf02efb1bb876732bcb38aa43fb9e9c991061086f575b5050811b0190556107c3565b88015160001983871b60f8161c191690553880610863565b88830151845592870192918901918901610820565b838b52878b208280850160051c8201928a86106108d6575b0160051c019086905b8281106108cb57505061076c565b8c81550186906108bd565b925081926108b4565b634e487b7160e01b8a52604160045260248afd5b90508801513861072d565b838c52888c209150601f1983168c5b8a8c83831061094a575050509083600194939210610932575b5050811b019055610740565b8a015160001983881b60f8161c191690553880610926565b8401518555600190940193928301920161090d565b828b52878b208480840160051c8201928a8510610996575b0160051c01905b81811061098b5750610719565b8b815560010161097e565b92508192610977565b634e487b7160e01b89526041600452602489fd5b8480fd5b50346101e45760203660031901126101e45760409060043580825260046020526109ed60018060a01b0384842054161515612042565b8152600f60205220604051610a0181611d91565b610a0a82611dfe565b81526101e0610a1b60018401611dfe565b9160208101928352610a2f60028501611dfe565b9384604083015260ff60046003830154928360608601520154161515918260808201525193519460405195869586611f99565b50346101e45760203660031901126101e45760406020916004358152600c83522054604051908152f35b50346101e45760203660031901126101e457602090600435815260048252604060018060a01b03912054161515604051908152f35b50346101e45760203660031901126101e4576101cc60406101e0926004358152600960205220611dfe565b50346101e45760203660031901126101e45760ff60406020926004358152600b8452205416604051908152f35b50346101e457610b2836611f02565b9091303b15610371576040516323b872dd60e01b81526001600160a01b039182166004820152921660248301526044820152818160648183305af18015610b9957610b71575080f35b6001600160401b038111610b855760405280f35b634e487b7160e01b82526041600452602482fd5b6040513d84823e3d90fd5b50346101e45760403660031901126101e45760043560243560ff8116809103610c365760207f074d2785b8b7aaa7611a7af06492f34991141994ea06bd3852f899c5890d174191610c1860018060a01b03610c0481600354163314611fe2565b858752600484526040872054161515612042565b838552600b82526040808620805460ff19168317905551908152a280f35b8280fd5b50346101e45760203660031901126101e45760406020916004358152600a83522054604051908152f35b50346101e45760203660031901126101e4576040906004358152600f60205220610c8d81611dfe565b6101e0610c9c60018401611dfe565b92610ca960028201611dfe565b9060ff60046003830154920154169160405195869586611f99565b50346101e4576101003660031901126101e457610cdf611eec565b6024356001600160401b038111610c3657610cfe903690600401611f52565b906064356001600160401b03811161037157610d1e903690600401611f52565b916084356001600160401b0381116109b357610d3e903690600401611f52565b9060a4356001600160401b03811161170d57610d5e903690600401611f52565b60e4356001600160401b03811161170957610d7d903690600401611f52565b9060018060a01b0393610d9585600354163314611fe2565b60025496610da28861201d565b6002558789526004602052604089208688166001600160601b0360a01b82541617905560056020526040892085516001600160401b03811161164457610de88254611d57565b601f81116116c7575b50806020601f8211600114611663578c91611658575b508160011b916000199060031b1c19161790555b878952600660205260443560408a2055600760205260408920908051906001600160401b038211611644578190610e528454611d57565b601f81116115f5575b50602090601f831160011461158c578c92611581575b50508160011b916000199060031b1c19161790555b868852600860205260408820908051906001600160401b0382116108df578190610eb08454611d57565b601f8111611533575b50602090601f83116001146114ca578b926114bf575b50508160011b916000199060031b1c19161790555b858752600960205260408720908051906001600160401b03821161099f578190610f0e8454611d57565b601f8111611472575b50602090601f8311600114611409578a926113fe575b50508160011b916000199060031b1c19161790555b848652600a60205260c4356040872055600b6020526040862060ff198154169055600c602052426040872055600d602052856040812055600e60205285604081205560405190610f9182611d91565b604051610f9d81611dc2565b8781528252604051610fae81611dc2565b87815260208301526040820152426060820152856080820152848652600f602052604086209080518051906001600160401b03821161099f578190610ff38554611d57565b601f81116113b1575b50602090601f831160011461134d578a92611342575b50508160011b916000199060031b1c19161782555b60208101518051906001600160401b03821161099f57819061104c6001860154611d57565b601f81116112f2575b50602090601f8311600114611288578a9261127d575b50508160011b916000199060031b1c19161760018301555b60408101518051906001600160401b03821161099f576110a66002850154611d57565b601f8111611239575b50918795939189959360209a508a90601f831160011461119a57936004608061117a95858b999661113e968e9c9a7fbc08b4cfc0f2a99c09576ab1e516bfd1b419ae23ec54804b8926c0d4c043291a9e9261118f575b50508160011b916000199060031b1c19161760028501555b606081015160038501550151151591019060ff801983541691151516179055565b604051948594848a16907fddf252ad1be2c89b69c2b068fc378daa952ba7f163c4a11628f55a4df523b3ef8180a4604084526040840190611ec7565b956044358984015216940390a3604051908152f35b015190503880611105565b906002850188528b882091885b601f198516811061121f5750608061117a9560018661113e968e9c9a966004967fbc08b4cfc0f2a99c09576ab1e516bfd1b419ae23ec54804b8926c0d4c043291a9f9d9a601f19811610611206575b505050811b01600285015561111d565b015160001960f88460031b161c191690553880806111f6565b8183015184558c9a50600190930192918d01918d016111a7565b600285018a5260208a20601f840160051c810160208510611276575b601f830160051c8201811061126b5750506110af565b8b8155600101611255565b5080611255565b01519050388061106b565b600186018b5260208b209250601f1984168b5b8181106112da57509084600195949392106112c1575b505050811b016001830155611083565b015160001960f88460031b161c191690553880806112b1565b9293602060018192878601518155019501930161129b565b909150600185018a5260208a20601f840160051c81016020851061133b575b90849392915b601f830160051c8201811061132d575050611055565b8c8155859450600101611317565b5080611311565b015190503880611012565b858b5260208b209250601f1984168b5b8181106113995750908460019594939210611380575b505050811b018255611027565b015160001960f88460031b161c19169055388080611373565b9293602060018192878601518155019501930161135d565b909150848a5260208a20601f840160051c8101602085106113f7575b90849392915b601f830160051c820181106113e9575050610ffc565b8c81558594506001016113d3565b50806113cd565b015190503880610f2d565b9250838a5260208a20908a935b601f1984168510611457576001945083601f1981161061143e575b505050811b019055610f42565b015160001960f88460031b161c19169055388080611431565b81810151835560209485019460019093019290910190611416565b909150838a5260208a20601f840160051c8101602085106114b8575b90849392915b601f830160051c820181106114aa575050610f17565b8c8155859450600101611494565b508061148e565b015190503880610ecf565b9250838b5260208b20908b935b601f1984168510611518576001945083601f198116106114ff575b505050811b019055610ee4565b015160001960f88460031b161c191690553880806114f2565b818101518355602094850194600190930192909101906114d7565b909150838b5260208b20601f840160051c81016020851061157a575b90849392915b8d601f840160051c8301821061156d57505050610eb9565b8155859450600101611555565b508061154f565b015190503880610e71565b9250838c5260208c20908c935b601f19841685106115da576001945083601f198116106115c1575b505050811b019055610e86565b015160001960f88460031b161c191690553880806115b4565b81810151835560209485019460019093019290910190611599565b909150838c5260208c20601f840160051c81016020851061163d575b84939291908e5b601f840160051c8301821061162f57505050610e5b565b81558594506001018e611618565b5080611611565b634e487b7160e01b8b52604160045260248bfd5b905087015138610e07565b9150828c5260208c208c925b601f19831684106116af576001935082601f19811610611696575b5050811b019055610e1b565b89015160001960f88460031b161c19169055388061168a565b8981015182556020938401936001909201910161166f565b828c5260208c20601f830160051c810160208410611702575b8d601f840160051c830182106116f857505050610df1565b81556001016116e0565b50806116e0565b8680fd5b8580fd5b50346101e45761172036611f02565b918284526020916004835260018060a01b0390611744826040882054161515612042565b84865260048452816040872054168033149081156118ba575b811561189d575b501561186057848652600484528180604088205416931692830361182257169182156117de5783855260108152600460408620916001600160601b0360a01b92838154169055528260408620918254161790557fddf252ad1be2c89b69c2b068fc378daa952ba7f163c4a11628f55a4df523b3ef8480a480f35b6064906040519062461bcd60e51b82526004820152601f60248201527f43616e6e6f74207472616e7366657220746f207a65726f2061646472657373006044820152fd5b60405162461bcd60e51b8152600481018590526016602482015275119c9bdb481859191c995cdcc81a5b98dbdc9c9958dd60521b6044820152606490fd5b60405162461bcd60e51b81526004810185905260156024820152742737ba1030b8383937bb32b21037b91037bbb732b960591b6044820152606490fd5b875250601184526040808720338852855286205460ff1638611764565b60108652604088205484163314915061175d565b50346101e45760203660031901126101e457602090600435815260048252604060018060a01b0391205416604051908152f35b50346101e457806003193601126101e4576002546000198101919082116105db57602082604051908152f35b50346101e45760203660031901126101e457611947611eec565b600354906001600160a01b03908183166119705716906001600160601b0360a01b161760035580f35b60405162461bcd60e51b8152602060048201526014602482015273141c9bdd1bd8dbdb08185b1c9958591e481cd95d60621b6044820152606490fd5b50346101e457602090816003193601126101e4576004803580835290835260408220546119e3906001600160a01b03161515612042565b81526005825260408120916006815260408220549260078252604083209260088352604081206009845260408220600a8552604083205494600b8152604084205460ff1691600c8252604085205493600d8352604086205495600e8452604090205496611a4f90611dfe565b98611a5990611dfe565b90611a6390611dfe565b91611a6d90611dfe565b926040519a8b9a610140808d528c01611a8591611ec7565b918b015289810360408b0152611a9a91611ec7565b88810360608a0152611aab91611ec7565b8781036080890152611abc91611ec7565b9460a087015260c086015260e08501526101008401526101208301520390f35b50346101e45760403660031901126101e457611af6611eec565b6024359081835260206004815260018060a01b039081604086205416338114908115611baf575b5015611b735783855260108152604080862080546001600160a01b03191694841694851790556004909152842054167f8c5be1e5ebec7d5bd14f71427d1e84f3dd0314c0f7b2291e5b200ac8c7c3b9258480a480f35b6064906040519062461bcd60e51b8252600482015260156024820152742737ba1037bbb732b91037b91037b832b930ba37b960591b6044820152fd5b865250601181526040808620338752825285205460ff1638611b1d565b50346101e45760203660031901126101e4576020906040600435918281526004845260018060a01b0392611c068484842054161515612042565b815260108452205416604051908152f35b50346101e457806003193601126101e45760405190808054611c3881611d57565b80855291600191808316908115611cbc5750600114611c62575b6101e0856101cc81870382611ddd565b80809450527f290decd9548b62a8d60345a988386fc84ba6bc95484008f6362f93160ef3e5635b828410611ca45750505081016020016101cc826101e0611c52565b80546020858701810191909152909301928101611c89565b8695506101e0969350602092506101cc94915060ff191682840152151560051b8201019293611c52565b905034611d53576020366003190112611d535760043563ffffffff60e01b8116809103610c3657602092506380ac58cd60e01b8114908115611d42575b8115611d31575b5015158152f35b6301ffc9a760e01b14905038611d2a565b635b5e139f60e01b81149150611d23565b5080fd5b90600182811c92168015611d87575b6020831014611d7157565b634e487b7160e01b600052602260045260246000fd5b91607f1691611d66565b60a081019081106001600160401b03821117611dac57604052565b634e487b7160e01b600052604160045260246000fd5b602081019081106001600160401b03821117611dac57604052565b90601f801991011681019081106001600160401b03821117611dac57604052565b9060405191826000825492611e1284611d57565b908184526001948581169081600014611e815750600114611e3e575b5050611e3c92500383611ddd565b565b9093915060005260209081600020936000915b818310611e69575050611e3c93508201013880611e2e565b85548884018501529485019487945091830191611e51565b915050611e3c94506020925060ff191682840152151560051b8201013880611e2e565b60005b838110611eb75750506000910152565b8181015183820152602001611ea7565b90602091611ee081518092818552858086019101611ea4565b601f01601f1916010190565b600435906001600160a01b038216820361024057565b6060906003190112610240576001600160a01b0390600435828116810361024057916024359081168103610240579060443590565b6001600160401b038111611dac57601f01601f191660200190565b81601f8201121561024057803590611f6982611f37565b92611f776040519485611ddd565b8284526020838301011161024057816000926020809301838601378301015290565b9395949192611fc7608094611fb9611fd59460a0895260a0890190611ec7565b908782036020890152611ec7565b908582036040870152611ec7565b9460608401521515910152565b15611fe957565b60405162461bcd60e51b815260206004820152600c60248201526b139bdd081c1c9bdd1bd8dbdb60a21b6044820152606490fd5b600019811461202c5760010190565b634e487b7160e01b600052601160045260246000fd5b1561204957565b60405162461bcd60e51b8152602060048201526014602482015273151bdad95b88191bd95cc81b9bdd08195e1a5cdd60621b6044820152606490fd5b6000818152602091600483526120a860018060a01b036040842054161515612042565b808252600f835260016120bf816040852001611dfe565b805161228d57506120cf826122d0565b91835260058452604083206040519485937f646174613a6170706c69636174696f6e2f6a736f6e2c7b000000000000000000828601527f226e616d65223a225969656c645820496e766f69636520230000000000000000603786015261213e8151809284604f89019101611ea4565b84019061088b60f21b9586604f8401527f226465736372697074696f6e223a22546f6b656e697a6564204166726963616e60518401527f2074726164652066696e616e636520696e766f696365202d2000000000000000607184015280948454946121a886611d57565b9582811690811561225e575060011461221d575b505050505050908161221a93602a93527f22696d616765223a22646174613a696d6167652f7376672b786d6c3b626173656002820152661b1a161717171160c91b6022820152607d60f81b602982015203600a810184520182611ddd565b90565b9091809394959650528282205b858310612247575050505001608a0182602a61221a3880806121bc565b8054838601608a015288965091830191810161222a565b92505050602a969550608a93925061221a9794915060ff191683830152801515020101919281943880806121bc565b61221a9350602792506122c0949150604051948266697066733a2f2f60c81b879485015282519283918686019101611ea4565b8101036007810184520182611ddd565b801561238d57600081805b61237957506122e981611f37565b906122f76040519283611ddd565b808252601f1961230682611f37565b013660208401375b8092801561237257600019820191821161202c578193600a92603090848406820180921161202c578551111561235c5760f81b6001600160f81b03191660001a908401601f0153049161230e565b634e487b7160e01b600052603260045260246000fd5b5050905090565b90612385600a9161201d565b9104806122db565b50604051604081018181106001600160401b03821117611dac5760405260018152600360fc1b60208201529056fea2646970667358221220a8ee37eb450820dcff12c93f6b25c401f5d9911e97724b566279c0bc4eca3b5364736f6c63430008140033",
  "linkReferences": {},
  "deployedLinkReferences": {}
}